{
  "contractName": "Veritru",
  "abi": [
    {
      "inputs": [
        {
          "internalType": "uint256",
          "name": "",
          "type": "uint256"
        }
      ],
      "name": "articleCIDs",
      "outputs": [
        {
          "internalType": "string",
          "name": "",
          "type": "string"
        }
      ],
      "stateMutability": "view",
      "type": "function",
      "constant": true
    },
    {
      "inputs": [
        {
          "internalType": "string",
          "name": "",
          "type": "string"
        }
      ],
      "name": "articles",
      "outputs": [
        {
          "internalType": "string",
          "name": "ipfs_cid",
          "type": "string"
        },
        {
          "internalType": "bool",
          "name": "exists",
          "type": "bool"
        }
      ],
      "stateMutability": "view",
      "type": "function",
      "constant": true
    },
    {
      "inputs": [
        {
          "internalType": "string",
          "name": "_ipfs_cid",
          "type": "string"
        },
        {
          "internalType": "bool",
          "name": "_vote",
          "type": "bool"
        },
        {
          "internalType": "int256",
          "name": "_confidence",
          "type": "int256"
        },
        {
          "internalType": "uint256",
          "name": "_expScore",
          "type": "uint256"
        }
      ],
      "name": "vote",
      "outputs": [],
      "stateMutability": "nonpayable",
      "type": "function"
    },
    {
      "inputs": [
        {
          "internalType": "string",
          "name": "_ipfs_cid",
          "type": "string"
        },
        {
          "internalType": "address",
          "name": "_voter",
          "type": "address"
        }
      ],
      "name": "getVote",
      "outputs": [
        {
          "internalType": "bool",
          "name": "",
          "type": "bool"
        }
      ],
      "stateMutability": "view",
      "type": "function",
      "constant": true
    },
    {
      "inputs": [
        {
          "internalType": "string",
          "name": "_ipfs_cid",
          "type": "string"
        },
        {
          "internalType": "address",
          "name": "_voter",
          "type": "address"
        }
      ],
      "name": "getConfidenceLevel",
      "outputs": [
        {
          "internalType": "int256",
          "name": "",
          "type": "int256"
        }
      ],
      "stateMutability": "view",
      "type": "function",
      "constant": true
    },
    {
      "inputs": [
        {
          "internalType": "string",
          "name": "_ipfs_cid",
          "type": "string"
        },
        {
          "internalType": "address",
          "name": "_voter",
          "type": "address"
        }
      ],
      "name": "getExpScore",
      "outputs": [
        {
          "internalType": "uint256",
          "name": "",
          "type": "uint256"
        }
      ],
      "stateMutability": "view",
      "type": "function",
      "constant": true
    },
    {
      "inputs": [
        {
          "internalType": "string",
          "name": "_ipfs_cid",
          "type": "string"
        }
      ],
      "name": "getTrueVotes",
      "outputs": [
        {
          "internalType": "uint256",
          "name": "",
          "type": "uint256"
        }
      ],
      "stateMutability": "view",
      "type": "function",
      "constant": true
    },
    {
      "inputs": [
        {
          "internalType": "string",
          "name": "_ipfs_cid",
          "type": "string"
        }
      ],
      "name": "getFalseVotes",
      "outputs": [
        {
          "internalType": "uint256",
          "name": "",
          "type": "uint256"
        }
      ],
      "stateMutability": "view",
      "type": "function",
      "constant": true
    },
    {
      "inputs": [
        {
          "internalType": "string",
          "name": "_ipfs_cid",
          "type": "string"
        }
      ],
      "name": "getTotalVotes",
      "outputs": [
        {
          "internalType": "uint256",
          "name": "",
          "type": "uint256"
        }
      ],
      "stateMutability": "view",
      "type": "function",
      "constant": true
    },
    {
      "inputs": [
        {
          "internalType": "string",
          "name": "_ipfs_cid",
          "type": "string"
        }
      ],
      "name": "getConfidenceLevels",
      "outputs": [
        {
          "internalType": "int256[]",
          "name": "",
          "type": "int256[]"
        }
      ],
      "stateMutability": "view",
      "type": "function",
      "constant": true
    },
    {
      "inputs": [
        {
          "internalType": "string",
          "name": "_ipfs_cid",
          "type": "string"
        }
      ],
      "name": "getExpScores",
      "outputs": [
        {
          "internalType": "uint256[]",
          "name": "",
          "type": "uint256[]"
        }
      ],
      "stateMutability": "view",
      "type": "function",
      "constant": true
    },
    {
      "inputs": [],
      "name": "getTotalArticles",
      "outputs": [
        {
          "internalType": "uint256",
          "name": "",
          "type": "uint256"
        }
      ],
      "stateMutability": "view",
      "type": "function",
      "constant": true
    }
  ],
  "bytecode": "0x608060405234801561001057600080fd5b50611a4d806100206000396000f3fe608060405234801561001057600080fd5b50600436106100b45760003560e01c80639b4326fb116100715780639b4326fb146101c8578063a2130c23146101f8578063be68e2e214610214578063d986b3f114610244578063ec7397cc14610274578063f7d49b83146102a4576100b4565b80630ebf1d3d146100b95780636a543a5d146100d75780637c702b8d146101075780637e7bd73c146101385780638b3455651461016857806398d16f7514610198575b600080fd5b6100c16102d4565b6040516100ce9190610e09565b60405180910390f35b6100f160048036038101906100ec9190610f7e565b6102e1565b6040516100fe9190610e09565b60405180910390f35b610121600480360381019061011c9190610f7e565b6103fe565b60405161012f929190611061565b60405180910390f35b610152600480360381019061014d91906110ef565b6104cd565b60405161015f9190611164565b60405180910390f35b610182600480360381019061017d9190610f7e565b61053b565b60405161018f919061123d565b60405180910390f35b6101b260048036038101906101ad9190610f7e565b610622565b6040516101bf9190610e09565b60405180910390f35b6101e260048036038101906101dd91906110ef565b610676565b6040516101ef919061125f565b60405180910390f35b610212600480360381019061020d91906112fe565b6106f1565b005b61022e60048036038101906102299190611381565b610ad1565b60405161023b91906113ae565b60405180910390f35b61025e600480360381019061025991906110ef565b610b7d565b60405161026b9190610e09565b60405180910390f35b61028e60048036038101906102899190610f7e565b610beb565b60405161029b919061148e565b60405180910390f35b6102be60048036038101906102b99190610f7e565b610cd2565b6040516102cb9190610e09565b60405180910390f35b6000600180549050905090565b6000806000836040516102f491906114ec565b908152602001604051809103902090508060010160009054906101000a900460ff166103245760009150506103f9565b6000805b82600801805490508110156103f257600083600801828154811061034f5761034e611503565b5b9060005260206000200160009054906101000a900473ffffffffffffffffffffffffffffffffffffffff1690508360030160008273ffffffffffffffffffffffffffffffffffffffff1673ffffffffffffffffffffffffffffffffffffffff16815260200190815260200160002060009054906101000a900460ff166103de5782806103da90611561565b9350505b5080806103ea90611561565b915050610328565b5080925050505b919050565b600081805160208101820180518482526020830160208501208183528095505050505050600091509050806000018054610437906115d8565b80601f0160208091040260200160405190810160405280929190818152602001828054610463906115d8565b80156104b05780601f10610485576101008083540402835291602001916104b0565b820191906000526020600020905b81548152906001019060200180831161049357829003601f168201915b5050505050908060010160009054906101000a900460ff16905082565b6000806000846040516104e091906114ec565b908152602001604051809103902090508060040160008473ffffffffffffffffffffffffffffffffffffffff1673ffffffffffffffffffffffffffffffffffffffff1681526020019081526020016000205491505092915050565b60606000808360405161054e91906114ec565b908152602001604051809103902090508060010160009054906101000a900460ff166105c657600067ffffffffffffffff81111561058f5761058e610e53565b5b6040519080825280602002602001820160405280156105bd5781602001602082028036833780820191505090505b5091505061061d565b8060060180548060200260200160405190810160405280929190818152602001828054801561061457602002820191906000526020600020905b815481526020019060010190808311610600575b50505050509150505b919050565b60008060008360405161063591906114ec565b908152602001604051809103902090508060010160009054906101000a900460ff16610665576000915050610671565b80600801805490509150505b919050565b60008060008460405161068991906114ec565b908152602001604051809103902090508060030160008473ffffffffffffffffffffffffffffffffffffffff1673ffffffffffffffffffffffffffffffffffffffff16815260200190815260200160002060009054906101000a900460ff1691505092915050565b7fffffffffffffffffffffffffffffffffffffffffffffffffffffffffffffffff8212158015610722575060018213155b610761576040517f08c379a00000000000000000000000000000000000000000000000000000000081526004016107589061167b565b60405180910390fd5b6000808560405161077291906114ec565b908152602001604051809103902090508060010160009054906101000a900460ff166108415760008551116107dc576040517f08c379a00000000000000000000000000000000000000000000000000000000081526004016107d3906116e7565b60405180910390fd5b848160000190816107ed91906118b3565b5060018160010160006101000a81548160ff02191690831515021790555060018590806001815401808255809150506001900390600052602060002001600090919091909150908161083f91906118b3565b505b8060020160003373ffffffffffffffffffffffffffffffffffffffff1673ffffffffffffffffffffffffffffffffffffffff16815260200190815260200160002060009054906101000a900460ff16156108d0576040517f08c379a00000000000000000000000000000000000000000000000000000000081526004016108c7906119f7565b60405180910390fd5b838160030160003373ffffffffffffffffffffffffffffffffffffffff1673ffffffffffffffffffffffffffffffffffffffff16815260200190815260200160002060006101000a81548160ff021916908315150217905550828160040160003373ffffffffffffffffffffffffffffffffffffffff1673ffffffffffffffffffffffffffffffffffffffff16815260200190815260200160002081905550818160050160003373ffffffffffffffffffffffffffffffffffffffff1673ffffffffffffffffffffffffffffffffffffffff16815260200190815260200160002081905550806006018390806001815401808255809150506001900390600052602060002001600090919091909150558060070182908060018154018082558091505060019003906000526020600020016000909190919091505560018160020160003373ffffffffffffffffffffffffffffffffffffffff1673ffffffffffffffffffffffffffffffffffffffff16815260200190815260200160002060006101000a81548160ff02191690831515021790555080600801339080600181540180825580915050600190039060005260206000200160009091909190916101000a81548173ffffffffffffffffffffffffffffffffffffffff021916908373ffffffffffffffffffffffffffffffffffffffff1602179055505050505050565b60018181548110610ae157600080fd5b906000526020600020016000915090508054610afc906115d8565b80601f0160208091040260200160405190810160405280929190818152602001828054610b28906115d8565b8015610b755780601f10610b4a57610100808354040283529160200191610b75565b820191906000526020600020905b815481529060010190602001808311610b5857829003601f168201915b505050505081565b600080600084604051610b9091906114ec565b908152602001604051809103902090508060050160008473ffffffffffffffffffffffffffffffffffffffff1673ffffffffffffffffffffffffffffffffffffffff1681526020019081526020016000205491505092915050565b606060008083604051610bfe91906114ec565b908152602001604051809103902090508060010160009054906101000a900460ff16610c7657600067ffffffffffffffff811115610c3f57610c3e610e53565b5b604051908082528060200260200182016040528015610c6d5781602001602082028036833780820191505090505b50915050610ccd565b80600701805480602002602001604051908101604052809291908181526020018280548015610cc457602002820191906000526020600020905b815481526020019060010190808311610cb0575b50505050509150505b919050565b600080600083604051610ce591906114ec565b908152602001604051809103902090508060010160009054906101000a900460ff16610d15576000915050610deb565b6000805b8260080180549050811015610de4576000836008018281548110610d4057610d3f611503565b5b9060005260206000200160009054906101000a900473ffffffffffffffffffffffffffffffffffffffff1690508360030160008273ffffffffffffffffffffffffffffffffffffffff1673ffffffffffffffffffffffffffffffffffffffff16815260200190815260200160002060009054906101000a900460ff1615610dd0578280610dcc90611561565b9350505b508080610ddc90611561565b915050610d19565b5080925050505b919050565b6000819050919050565b610e0381610df0565b82525050565b6000602082019050610e1e6000830184610dfa565b92915050565b6000604051905090565b600080fd5b600080fd5b600080fd5b600080fd5b6000601f19601f8301169050919050565b7f4e487b7100000000000000000000000000000000000000000000000000000000600052604160045260246000fd5b610e8b82610e42565b810181811067ffffffffffffffff82111715610eaa57610ea9610e53565b5b80604052505050565b6000610ebd610e24565b9050610ec98282610e82565b919050565b600067ffffffffffffffff821115610ee957610ee8610e53565b5b610ef282610e42565b9050602081019050919050565b82818337600083830152505050565b6000610f21610f1c84610ece565b610eb3565b905082815260208101848484011115610f3d57610f3c610e3d565b5b610f48848285610eff565b509392505050565b600082601f830112610f6557610f64610e38565b5b8135610f75848260208601610f0e565b91505092915050565b600060208284031215610f9457610f93610e2e565b5b600082013567ffffffffffffffff811115610fb257610fb1610e33565b5b610fbe84828501610f50565b91505092915050565b600081519050919050565b600082825260208201905092915050565b60005b83811015611001578082015181840152602081019050610fe6565b60008484015250505050565b600061101882610fc7565b6110228185610fd2565b9350611032818560208601610fe3565b61103b81610e42565b840191505092915050565b60008115159050919050565b61105b81611046565b82525050565b6000604082019050818103600083015261107b818561100d565b905061108a6020830184611052565b9392505050565b600073ffffffffffffffffffffffffffffffffffffffff82169050919050565b60006110bc82611091565b9050919050565b6110cc816110b1565b81146110d757600080fd5b50565b6000813590506110e9816110c3565b92915050565b6000806040838503121561110657611105610e2e565b5b600083013567ffffffffffffffff81111561112457611123610e33565b5b61113085828601610f50565b9250506020611141858286016110da565b9150509250929050565b6000819050919050565b61115e8161114b565b82525050565b60006020820190506111796000830184611155565b92915050565b600081519050919050565b600082825260208201905092915050565b6000819050602082019050919050565b6111b48161114b565b82525050565b60006111c683836111ab565b60208301905092915050565b6000602082019050919050565b60006111ea8261117f565b6111f4818561118a565b93506111ff8361119b565b8060005b8381101561123057815161121788826111ba565b9750611222836111d2565b925050600181019050611203565b5085935050505092915050565b6000602082019050818103600083015261125781846111df565b905092915050565b60006020820190506112746000830184611052565b92915050565b61128381611046565b811461128e57600080fd5b50565b6000813590506112a08161127a565b92915050565b6112af8161114b565b81146112ba57600080fd5b50565b6000813590506112cc816112a6565b92915050565b6112db81610df0565b81146112e657600080fd5b50565b6000813590506112f8816112d2565b92915050565b6000806000806080858703121561131857611317610e2e565b5b600085013567ffffffffffffffff81111561133657611335610e33565b5b61134287828801610f50565b945050602061135387828801611291565b9350506040611364878288016112bd565b9250506060611375878288016112e9565b91505092959194509250565b60006020828403121561139757611396610e2e565b5b60006113a5848285016112e9565b91505092915050565b600060208201905081810360008301526113c8818461100d565b905092915050565b600081519050919050565b600082825260208201905092915050565b6000819050602082019050919050565b61140581610df0565b82525050565b600061141783836113fc565b60208301905092915050565b6000602082019050919050565b600061143b826113d0565b61144581856113db565b9350611450836113ec565b8060005b83811015611481578151611468888261140b565b975061147383611423565b925050600181019050611454565b5085935050505092915050565b600060208201905081810360008301526114a88184611430565b905092915050565b600081905092915050565b60006114c682610fc7565b6114d081856114b0565b93506114e0818560208601610fe3565b80840191505092915050565b60006114f882846114bb565b915081905092915050565b7f4e487b7100000000000000000000000000000000000000000000000000000000600052603260045260246000fd5b7f4e487b7100000000000000000000000000000000000000000000000000000000600052601160045260246000fd5b600061156c82610df0565b91507fffffffffffffffffffffffffffffffffffffffffffffffffffffffffffffffff820361159e5761159d611532565b5b600182019050919050565b7f4e487b7100000000000000000000000000000000000000000000000000000000600052602260045260246000fd5b600060028204905060018216806115f057607f821691505b602082108103611603576116026115a9565b5b50919050565b7f436f6e666964656e6365206c6576656c206d757374206265206265747765656e60008201527f202d3120616e6420310000000000000000000000000000000000000000000000602082015250565b6000611665602983610fd2565b915061167082611609565b604082019050919050565b6000602082019050818103600083015261169481611658565b9050919050565b7f49504653204349442063616e6e6f7420626520656d7074790000000000000000600082015250565b60006116d1601883610fd2565b91506116dc8261169b565b602082019050919050565b60006020820190508181036000830152611700816116c4565b9050919050565b60008190508160005260206000209050919050565b60006020601f8301049050919050565b600082821b905092915050565b6000600883026117697fffffffffffffffffffffffffffffffffffffffffffffffffffffffffffffffff8261172c565b611773868361172c565b95508019841693508086168417925050509392505050565b6000819050919050565b60006117b06117ab6117a684610df0565b61178b565b610df0565b9050919050565b6000819050919050565b6117ca83611795565b6117de6117d6826117b7565b848454611739565b825550505050565b600090565b6117f36117e6565b6117fe8184846117c1565b505050565b5b81811015611822576118176000826117eb565b600181019050611804565b5050565b601f8211156118675761183881611707565b6118418461171c565b81016020851015611850578190505b61186461185c8561171c565b830182611803565b50505b505050565b600082821c905092915050565b600061188a6000198460080261186c565b1980831691505092915050565b60006118a38383611879565b9150826002028217905092915050565b6118bc82610fc7565b67ffffffffffffffff8111156118d5576118d4610e53565b5b6118df82546115d8565b6118ea828285611826565b600060209050601f83116001811461191d576000841561190b578287015190505b6119158582611897565b86555061197d565b601f19841661192b86611707565b60005b828110156119535784890151825560018201915060208501945060208101905061192e565b86831015611970578489015161196c601f891682611879565b8355505b6001600288020188555050505b505050505050565b7f596f75206861766520616c726561647920766f74656420666f7220746869732060008201527f61727469636c6500000000000000000000000000000000000000000000000000602082015250565b60006119e1602783610fd2565b91506119ec82611985565b604082019050919050565b60006020820190508181036000830152611a10816119d4565b905091905056fea26469706673582212205524bbf97978c9b72f4b215b2871e6cb5f48a4700289c7b731a404ebbd24063d64736f6c63430008130033",
  "immutableReferences": {},
  "source": "// SPDX-License-Identifier: MIT\r\n\r\npragma solidity ^0.8.0;\r\n\r\ncontract Veritru {\r\n\r\n    struct Article {\r\n        string ipfs_cid;\r\n        bool exists;\r\n        mapping(address => bool) hasVoted;\r\n        mapping(address => bool) votes;\r\n        mapping(address => int) confidenceLevel;\r\n        mapping(address => uint) expScore;\r\n        int[] confidenceLevels;\r\n        uint[] expScores;\r\n        address[] voters;\r\n    }\r\n\r\n    mapping(string => Article) public articles;\r\n    string[] public articleCIDs;\r\n\r\n    function vote(string memory _ipfs_cid, bool _vote, int _confidence, uint _expScore) public {\r\n        require(_confidence >= -1 && _confidence <= 1, \"Confidence level must be between -1 and 1\");\r\n        \r\n        Article storage article = articles[_ipfs_cid];\r\n\r\n        // Check if the article exists, if not, create it\r\n        // After that, it proceeds with the vote\r\n        if (!article.exists) {\r\n            require(bytes(_ipfs_cid).length > 0, \"IPFS CID cannot be empty\");\r\n\r\n            article.ipfs_cid = _ipfs_cid;\r\n            article.exists = true;\r\n            articleCIDs.push(_ipfs_cid);\r\n        }\r\n        \r\n        // If article already exists, continue to vote\r\n        // Check if reviewer already voted\r\n        require(!article.hasVoted[msg.sender], \"You have already voted for this article\");\r\n\r\n        article.votes[msg.sender] = _vote;\r\n        article.confidenceLevel[msg.sender] = _confidence;\r\n        article.expScore[msg.sender] = _expScore;\r\n        article.confidenceLevels.push(_confidence);\r\n        article.expScores.push(_expScore);\r\n        article.hasVoted[msg.sender] = true;\r\n        article.voters.push(msg.sender);\r\n    }\r\n\r\n    function getVote(string memory _ipfs_cid, address _voter) public view returns (bool) {\r\n        Article storage article = articles[_ipfs_cid];\r\n        return article.votes[_voter];\r\n    }\r\n\r\n    function getConfidenceLevel(string memory _ipfs_cid, address _voter) public view returns (int) {\r\n        Article storage article = articles[_ipfs_cid];\r\n        return article.confidenceLevel[_voter];\r\n    }\r\n\r\n    function getExpScore(string memory _ipfs_cid, address _voter) public view returns (uint) {\r\n        Article storage article = articles[_ipfs_cid];\r\n        return article.expScore[_voter];\r\n    }\r\n\r\n    function getTrueVotes(string memory _ipfs_cid) public view returns (uint) {\r\n        Article storage article = articles[_ipfs_cid];\r\n\r\n        if (!article.exists) {\r\n            return 0;\r\n        }\r\n\r\n        uint trueVotes = 0;\r\n        for (uint i = 0; i < article.voters.length; i++) {\r\n            address voter = article.voters[i];\r\n            if (article.votes[voter]) {\r\n                trueVotes++;\r\n            }\r\n        }\r\n        return trueVotes;\r\n    }\r\n\r\n    function getFalseVotes(string memory _ipfs_cid) public view returns (uint) {\r\n        Article storage article = articles[_ipfs_cid];\r\n\r\n        if (!article.exists) {\r\n            return 0;\r\n        }\r\n\r\n        uint falseVotes = 0;\r\n        for (uint i = 0; i < article.voters.length; i++) {\r\n            address voter = article.voters[i];\r\n            if (!article.votes[voter]) {\r\n                falseVotes++;\r\n            }\r\n        }\r\n        return falseVotes;\r\n    }\r\n\r\n    function getTotalVotes(string memory _ipfs_cid) public view returns (uint) {\r\n        Article storage article = articles[_ipfs_cid];\r\n\r\n        if (!article.exists) {\r\n            return 0;\r\n        }\r\n        return article.voters.length;\r\n    }\r\n\r\n    function getConfidenceLevels(string memory _ipfs_cid) public view returns (int[] memory) {\r\n        Article storage article = articles[_ipfs_cid];\r\n\r\n        if (!article.exists) {\r\n            return new int[](0);\r\n        }\r\n\r\n        return article.confidenceLevels;\r\n    }\r\n\r\n    function getExpScores(string memory _ipfs_cid) public view returns (uint[] memory) {\r\n        Article storage article = articles[_ipfs_cid];\r\n\r\n        if (!article.exists) {\r\n            return new uint[](0);\r\n        }\r\n\r\n        return article.expScores;\r\n    }\r\n\r\n    function getTotalArticles() public view returns (uint) {\r\n        return articleCIDs.length;\r\n    }\r\n}\r\n",
  "sourcePath": "D:\\Projects\\veritru\\ethereum\\contracts\\Veritru.sol",
  "compiler": {
    "name": "solc",
    "version": "0.8.19+commit.7dd6d404.Emscripten.clang"
  },
  "schemaVersion": "3.4.12",
  "updatedAt": "2023-03-31T22:33:18.246Z",
  "networkType": "ethereum",
  "devdoc": {
    "kind": "dev",
    "methods": {},
    "version": 1
  },
  "userdoc": {
    "kind": "user",
    "methods": {},
    "version": 1
  }
}