{
  "contractName": "Veritru",
  "abi": [
    {
      "inputs": [
        {
          "internalType": "uint256",
          "name": "",
          "type": "uint256"
        }
      ],
      "name": "articleMappingKeys",
      "outputs": [
        {
          "internalType": "string",
          "name": "",
          "type": "string"
        }
      ],
      "stateMutability": "view",
      "type": "function",
      "constant": true
    },
    {
      "inputs": [
        {
          "internalType": "string",
          "name": "",
          "type": "string"
        }
      ],
      "name": "articles",
      "outputs": [
        {
          "internalType": "address",
          "name": "uploader",
          "type": "address"
        },
        {
          "internalType": "string",
          "name": "ipfs_cid",
          "type": "string"
        },
        {
          "internalType": "string",
          "name": "headline",
          "type": "string"
        },
        {
          "internalType": "string",
          "name": "category",
          "type": "string"
        },
        {
          "internalType": "string",
          "name": "result",
          "type": "string"
        }
      ],
      "stateMutability": "view",
      "type": "function",
      "constant": true
    },
    {
      "inputs": [
        {
          "internalType": "uint256",
          "name": "",
          "type": "uint256"
        }
      ],
      "name": "reviewerMappingKeys",
      "outputs": [
        {
          "internalType": "address",
          "name": "",
          "type": "address"
        }
      ],
      "stateMutability": "view",
      "type": "function",
      "constant": true
    },
    {
      "inputs": [
        {
          "internalType": "address",
          "name": "",
          "type": "address"
        }
      ],
      "name": "reviewers",
      "outputs": [
        {
          "internalType": "address",
          "name": "reviewer_address",
          "type": "address"
        },
        {
          "internalType": "string",
          "name": "username",
          "type": "string"
        },
        {
          "internalType": "uint256",
          "name": "tenure",
          "type": "uint256"
        },
        {
          "internalType": "uint256",
          "name": "organization",
          "type": "uint256"
        },
        {
          "internalType": "uint256",
          "name": "role",
          "type": "uint256"
        },
        {
          "internalType": "uint256",
          "name": "frequency",
          "type": "uint256"
        },
        {
          "internalType": "uint256",
          "name": "accuracy",
          "type": "uint256"
        }
      ],
      "stateMutability": "view",
      "type": "function",
      "constant": true
    },
    {
      "inputs": [],
      "name": "totalVotes",
      "outputs": [
        {
          "internalType": "int256",
          "name": "",
          "type": "int256"
        }
      ],
      "stateMutability": "view",
      "type": "function",
      "constant": true
    },
    {
      "inputs": [
        {
          "internalType": "uint256",
          "name": "",
          "type": "uint256"
        }
      ],
      "name": "voteMappingKeys",
      "outputs": [
        {
          "internalType": "address",
          "name": "",
          "type": "address"
        }
      ],
      "stateMutability": "view",
      "type": "function",
      "constant": true
    },
    {
      "inputs": [
        {
          "internalType": "address",
          "name": "",
          "type": "address"
        }
      ],
      "name": "votes",
      "outputs": [
        {
          "internalType": "address",
          "name": "voter",
          "type": "address"
        },
        {
          "internalType": "bool",
          "name": "voted",
          "type": "bool"
        },
        {
          "internalType": "string",
          "name": "ipfs_cid",
          "type": "string"
        },
        {
          "internalType": "int256",
          "name": "vote",
          "type": "int256"
        },
        {
          "internalType": "int256",
          "name": "confidence",
          "type": "int256"
        }
      ],
      "stateMutability": "view",
      "type": "function",
      "constant": true
    },
    {
      "inputs": [
        {
          "internalType": "address",
          "name": "_reviewer_address",
          "type": "address"
        },
        {
          "internalType": "string",
          "name": "_username",
          "type": "string"
        },
        {
          "internalType": "uint256",
          "name": "_tenure",
          "type": "uint256"
        },
        {
          "internalType": "uint256",
          "name": "_organization",
          "type": "uint256"
        },
        {
          "internalType": "uint256",
          "name": "_role",
          "type": "uint256"
        }
      ],
      "name": "createReviewer",
      "outputs": [],
      "stateMutability": "nonpayable",
      "type": "function"
    },
    {
      "inputs": [
        {
          "internalType": "address",
          "name": "_addr",
          "type": "address"
        }
      ],
      "name": "getReviewer",
      "outputs": [
        {
          "internalType": "address",
          "name": "",
          "type": "address"
        },
        {
          "internalType": "string",
          "name": "",
          "type": "string"
        },
        {
          "internalType": "uint256",
          "name": "",
          "type": "uint256"
        },
        {
          "internalType": "uint256",
          "name": "",
          "type": "uint256"
        },
        {
          "internalType": "uint256",
          "name": "",
          "type": "uint256"
        }
      ],
      "stateMutability": "view",
      "type": "function",
      "constant": true
    },
    {
      "inputs": [],
      "name": "getAllReviewers",
      "outputs": [
        {
          "components": [
            {
              "internalType": "address",
              "name": "reviewer_address",
              "type": "address"
            },
            {
              "internalType": "string",
              "name": "username",
              "type": "string"
            },
            {
              "internalType": "uint256",
              "name": "tenure",
              "type": "uint256"
            },
            {
              "internalType": "uint256",
              "name": "organization",
              "type": "uint256"
            },
            {
              "internalType": "uint256",
              "name": "role",
              "type": "uint256"
            },
            {
              "internalType": "uint256",
              "name": "frequency",
              "type": "uint256"
            },
            {
              "internalType": "uint256",
              "name": "accuracy",
              "type": "uint256"
            }
          ],
          "internalType": "struct Veritru.Reviewer[]",
          "name": "",
          "type": "tuple[]"
        }
      ],
      "stateMutability": "view",
      "type": "function",
      "constant": true
    },
    {
      "inputs": [
        {
          "internalType": "address",
          "name": "_uploader",
          "type": "address"
        },
        {
          "internalType": "string",
          "name": "_ipfs_cid",
          "type": "string"
        },
        {
          "internalType": "string",
          "name": "_headline",
          "type": "string"
        },
        {
          "internalType": "string",
          "name": "_category",
          "type": "string"
        }
      ],
      "name": "createArticle",
      "outputs": [],
      "stateMutability": "nonpayable",
      "type": "function"
    },
    {
      "inputs": [
        {
          "internalType": "string",
          "name": "_ipfs_cid",
          "type": "string"
        }
      ],
      "name": "getArticle",
      "outputs": [
        {
          "internalType": "address",
          "name": "",
          "type": "address"
        },
        {
          "internalType": "string",
          "name": "",
          "type": "string"
        },
        {
          "internalType": "string",
          "name": "",
          "type": "string"
        },
        {
          "internalType": "string",
          "name": "",
          "type": "string"
        }
      ],
      "stateMutability": "view",
      "type": "function",
      "constant": true
    },
    {
      "inputs": [],
      "name": "getAllArticles",
      "outputs": [
        {
          "components": [
            {
              "internalType": "address",
              "name": "uploader",
              "type": "address"
            },
            {
              "internalType": "string",
              "name": "ipfs_cid",
              "type": "string"
            },
            {
              "internalType": "string",
              "name": "headline",
              "type": "string"
            },
            {
              "internalType": "string",
              "name": "category",
              "type": "string"
            },
            {
              "internalType": "string",
              "name": "result",
              "type": "string"
            }
          ],
          "internalType": "struct Veritru.Article[]",
          "name": "",
          "type": "tuple[]"
        }
      ],
      "stateMutability": "view",
      "type": "function",
      "constant": true
    },
    {
      "inputs": [
        {
          "internalType": "string",
          "name": "_ipfs_cid",
          "type": "string"
        },
        {
          "internalType": "int256",
          "name": "_vote",
          "type": "int256"
        },
        {
          "internalType": "int256",
          "name": "_confidence",
          "type": "int256"
        }
      ],
      "name": "setVote",
      "outputs": [],
      "stateMutability": "nonpayable",
      "type": "function"
    },
    {
      "inputs": [
        {
          "internalType": "address",
          "name": "_addr",
          "type": "address"
        }
      ],
      "name": "getVote",
      "outputs": [
        {
          "internalType": "address",
          "name": "",
          "type": "address"
        },
        {
          "internalType": "bool",
          "name": "",
          "type": "bool"
        },
        {
          "internalType": "string",
          "name": "",
          "type": "string"
        },
        {
          "internalType": "int256",
          "name": "",
          "type": "int256"
        },
        {
          "internalType": "int256",
          "name": "",
          "type": "int256"
        }
      ],
      "stateMutability": "view",
      "type": "function",
      "constant": true
    },
    {
      "inputs": [],
      "name": "getAllVotes",
      "outputs": [
        {
          "components": [
            {
              "internalType": "address",
              "name": "voter",
              "type": "address"
            },
            {
              "internalType": "bool",
              "name": "voted",
              "type": "bool"
            },
            {
              "internalType": "string",
              "name": "ipfs_cid",
              "type": "string"
            },
            {
              "internalType": "int256",
              "name": "vote",
              "type": "int256"
            },
            {
              "internalType": "int256",
              "name": "confidence",
              "type": "int256"
            }
          ],
          "internalType": "struct Veritru.Vote[]",
          "name": "",
          "type": "tuple[]"
        }
      ],
      "stateMutability": "view",
      "type": "function",
      "constant": true
    },
    {
      "inputs": [],
      "name": "getSumVotes",
      "outputs": [
        {
          "internalType": "int256",
          "name": "",
          "type": "int256"
        }
      ],
      "stateMutability": "view",
      "type": "function",
      "constant": true
    },
    {
      "inputs": [
        {
          "internalType": "uint256",
          "name": "_frequency",
          "type": "uint256"
        }
      ],
      "name": "setFrequency",
      "outputs": [],
      "stateMutability": "nonpayable",
      "type": "function"
    },
    {
      "inputs": [
        {
          "internalType": "address",
          "name": "_addr",
          "type": "address"
        }
      ],
      "name": "getFrequency",
      "outputs": [
        {
          "internalType": "uint256",
          "name": "",
          "type": "uint256"
        }
      ],
      "stateMutability": "view",
      "type": "function",
      "constant": true
    },
    {
      "inputs": [
        {
          "internalType": "uint256",
          "name": "_accuracy",
          "type": "uint256"
        }
      ],
      "name": "setAccuracy",
      "outputs": [],
      "stateMutability": "nonpayable",
      "type": "function"
    },
    {
      "inputs": [
        {
          "internalType": "address",
          "name": "_addr",
          "type": "address"
        }
      ],
      "name": "getAccuracy",
      "outputs": [
        {
          "internalType": "uint256",
          "name": "",
          "type": "uint256"
        }
      ],
      "stateMutability": "view",
      "type": "function",
      "constant": true
    },
    {
      "inputs": [
        {
          "internalType": "address",
          "name": "_addr",
          "type": "address"
        }
      ],
      "name": "calcExpScore",
      "outputs": [
        {
          "internalType": "uint256",
          "name": "",
          "type": "uint256"
        }
      ],
      "stateMutability": "view",
      "type": "function",
      "constant": true
    },
    {
      "inputs": [
        {
          "internalType": "address",
          "name": "_addr",
          "type": "address"
        }
      ],
      "name": "calcReputationScore",
      "outputs": [
        {
          "internalType": "uint256",
          "name": "",
          "type": "uint256"
        }
      ],
      "stateMutability": "view",
      "type": "function",
      "constant": true
    },
    {
      "inputs": [
        {
          "internalType": "string",
          "name": "_ipfs_cid",
          "type": "string"
        },
        {
          "internalType": "string",
          "name": "_result",
          "type": "string"
        }
      ],
      "name": "setResult",
      "outputs": [],
      "stateMutability": "nonpayable",
      "type": "function"
    },
    {
      "inputs": [
        {
          "internalType": "string",
          "name": "_ipfs_cid",
          "type": "string"
        }
      ],
      "name": "getResult",
      "outputs": [
        {
          "internalType": "string",
          "name": "",
          "type": "string"
        }
      ],
      "stateMutability": "view",
      "type": "function",
      "constant": true
    }
  ],
  "bytecode": "0x608060405234801561001057600080fd5b506139c9806100206000396000f3fe608060405234801561001057600080fd5b50600436106101735760003560e01c80638979d901116100de578063d8795cc511610097578063f3035dd911610071578063f3035dd9146104e1578063f426f03a146104ff578063f7cbb1b21461051b578063fc0f02f41461055157610173565b8063d8795cc514610461578063d8bff5a51461047d578063e74a2835146104b157610173565b80638979d9011461035c5780638d337b8114610390578063a4666665146103c4578063b1a74f5d146103f7578063b44d310b14610413578063c3d96dd21461043157610173565b8063783df30a11610130578063783df30a146102725780637c702b8d146102a25780637fa0f9d7146102d657806381021b7e14610306578063851b6ef214610322578063896c10001461034057610173565b80630d15fd77146101785780633d912e7c14610196578063498cc70d146101c6578063546d2955146101f657806354fe15f21461022657806363c7669a14610256575b600080fd5b61018061056f565b60405161018d9190612767565b60405180910390f35b6101b060048036038101906101ab91906127f4565b610575565b6040516101bd919061283a565b60405180910390f35b6101e060048036038101906101db919061299b565b610708565b6040516101ed9190612a63565b60405180910390f35b610210600480360381019061020b91906127f4565b6109e2565b60405161021d919061283a565b60405180910390f35b610240600480360381019061023b9190612ab1565b610b66565b60405161024d9190612aed565b60405180910390f35b610270600480360381019061026b9190612b08565b610ba5565b005b61028c600480360381019061028791906127f4565b610bde565b604051610299919061283a565b60405180910390f35b6102bc60048036038101906102b7919061299b565b610d53565b6040516102cd959493929190612b80565b60405180910390f35b6102f060048036038101906102eb91906127f4565b610fdf565b6040516102fd919061283a565b60405180910390f35b610320600480360381019061031b9190612ab1565b611154565b005b61032a6111b5565b6040516103379190612daa565b60405180910390f35b61035a60048036038101906103559190612df8565b6113fc565b005b610376600480360381019061037191906127f4565b61154f565b604051610387959493929190612e67565b60405180910390f35b6103aa60048036038101906103a591906127f4565b6116eb565b6040516103bb959493929190612ed0565b60405180910390f35b6103de60048036038101906103d9919061299b565b611885565b6040516103ee9493929190612f2a565b60405180910390f35b610411600480360381019061040c9190612f84565b611b7b565b005b61041b611c52565b604051610428919061318c565b60405180910390f35b61044b60048036038101906104469190612ab1565b611fde565b6040516104589190612aed565b60405180910390f35b61047b600480360381019061047691906131ae565b61201d565b005b610497600480360381019061049291906127f4565b61213a565b6040516104a8959493929190612ed0565b60405180910390f35b6104cb60048036038101906104c69190612ab1565b612225565b6040516104d89190612a63565b60405180910390f35b6104e96122d1565b6040516104f69190612767565b60405180910390f35b61051960048036038101906105149190612ab1565b6122db565b005b610535600480360381019061053091906127f4565b61233c565b6040516105489796959493929190613245565b60405180910390f35b610559612426565b6040516105669190613428565b60405180910390f35b60065481565b6000806000808473ffffffffffffffffffffffffffffffffffffffff1673ffffffffffffffffffffffffffffffffffffffff1681526020019081526020016000206040518060e00160405290816000820160009054906101000a900473ffffffffffffffffffffffffffffffffffffffff1673ffffffffffffffffffffffffffffffffffffffff1673ffffffffffffffffffffffffffffffffffffffff16815260200160018201805461062790613479565b80601f016020809104026020016040519081016040528092919081815260200182805461065390613479565b80156106a05780601f10610675576101008083540402835291602001916106a0565b820191906000526020600020905b81548152906001019060200180831161068357829003601f168201915b505050505081526020016002820154815260200160038201548152602001600482015481526020016005820154815260200160068201548152505090508060800151816060015182604001516106f691906134d9565b61070091906134d9565b915050919050565b6060600060018360405161071c9190613549565b90815260200160405180910390206040518060a00160405290816000820160009054906101000a900473ffffffffffffffffffffffffffffffffffffffff1673ffffffffffffffffffffffffffffffffffffffff1673ffffffffffffffffffffffffffffffffffffffff16815260200160018201805461079b90613479565b80601f01602080910402602001604051908101604052809291908181526020018280546107c790613479565b80156108145780601f106107e957610100808354040283529160200191610814565b820191906000526020600020905b8154815290600101906020018083116107f757829003601f168201915b5050505050815260200160028201805461082d90613479565b80601f016020809104026020016040519081016040528092919081815260200182805461085990613479565b80156108a65780601f1061087b576101008083540402835291602001916108a6565b820191906000526020600020905b81548152906001019060200180831161088957829003601f168201915b505050505081526020016003820180546108bf90613479565b80601f01602080910402602001604051908101604052809291908181526020018280546108eb90613479565b80156109385780601f1061090d57610100808354040283529160200191610938565b820191906000526020600020905b81548152906001019060200180831161091b57829003601f168201915b5050505050815260200160048201805461095190613479565b80601f016020809104026020016040519081016040528092919081815260200182805461097d90613479565b80156109ca5780601f1061099f576101008083540402835291602001916109ca565b820191906000526020600020905b8154815290600101906020018083116109ad57829003601f168201915b50505050508152505090508060800151915050919050565b6000806000808473ffffffffffffffffffffffffffffffffffffffff1673ffffffffffffffffffffffffffffffffffffffff1681526020019081526020016000206040518060e00160405290816000820160009054906101000a900473ffffffffffffffffffffffffffffffffffffffff1673ffffffffffffffffffffffffffffffffffffffff1673ffffffffffffffffffffffffffffffffffffffff168152602001600182018054610a9490613479565b80601f0160208091040260200160405190810160405280929190818152602001828054610ac090613479565b8015610b0d5780601f10610ae257610100808354040283529160200191610b0d565b820191906000526020600020905b815481529060010190602001808311610af057829003601f168201915b505050505081526020016002820154815260200160038201548152602001600482015481526020016005820154815260200160068201548152505090508060a001518160c00151610b5e919061358f565b915050919050565b60058181548110610b7657600080fd5b906000526020600020016000915054906101000a900473ffffffffffffffffffffffffffffffffffffffff1681565b6000600183604051610bb79190613549565b9081526020016040518091039020905081816004019081610bd8919061376c565b50505050565b6000806000808473ffffffffffffffffffffffffffffffffffffffff1673ffffffffffffffffffffffffffffffffffffffff1681526020019081526020016000206040518060e00160405290816000820160009054906101000a900473ffffffffffffffffffffffffffffffffffffffff1673ffffffffffffffffffffffffffffffffffffffff1673ffffffffffffffffffffffffffffffffffffffff168152602001600182018054610c9090613479565b80601f0160208091040260200160405190810160405280929190818152602001828054610cbc90613479565b8015610d095780601f10610cde57610100808354040283529160200191610d09565b820191906000526020600020905b815481529060010190602001808311610cec57829003601f168201915b505050505081526020016002820154815260200160038201548152602001600482015481526020016005820154815260200160068201548152505090508060c00151915050919050565b6001818051602081018201805184825260208301602085012081835280955050505050506000915090508060000160009054906101000a900473ffffffffffffffffffffffffffffffffffffffff1690806001018054610db290613479565b80601f0160208091040260200160405190810160405280929190818152602001828054610dde90613479565b8015610e2b5780601f10610e0057610100808354040283529160200191610e2b565b820191906000526020600020905b815481529060010190602001808311610e0e57829003601f168201915b505050505090806002018054610e4090613479565b80601f0160208091040260200160405190810160405280929190818152602001828054610e6c90613479565b8015610eb95780601f10610e8e57610100808354040283529160200191610eb9565b820191906000526020600020905b815481529060010190602001808311610e9c57829003601f168201915b505050505090806003018054610ece90613479565b80601f0160208091040260200160405190810160405280929190818152602001828054610efa90613479565b8015610f475780601f10610f1c57610100808354040283529160200191610f47565b820191906000526020600020905b815481529060010190602001808311610f2a57829003601f168201915b505050505090806004018054610f5c90613479565b80601f0160208091040260200160405190810160405280929190818152602001828054610f8890613479565b8015610fd55780601f10610faa57610100808354040283529160200191610fd5565b820191906000526020600020905b815481529060010190602001808311610fb857829003601f168201915b5050505050905085565b6000806000808473ffffffffffffffffffffffffffffffffffffffff1673ffffffffffffffffffffffffffffffffffffffff1681526020019081526020016000206040518060e00160405290816000820160009054906101000a900473ffffffffffffffffffffffffffffffffffffffff1673ffffffffffffffffffffffffffffffffffffffff1673ffffffffffffffffffffffffffffffffffffffff16815260200160018201805461109190613479565b80601f01602080910402602001604051908101604052809291908181526020018280546110bd90613479565b801561110a5780601f106110df5761010080835404028352916020019161110a565b820191906000526020600020905b8154815290600101906020018083116110ed57829003601f168201915b505050505081526020016002820154815260200160038201548152602001600482015481526020016005820154815260200160068201548152505090508060a00151915050919050565b60008060003373ffffffffffffffffffffffffffffffffffffffff1673ffffffffffffffffffffffffffffffffffffffff1681526020019081526020016000209050818160060160008282546111aa91906134d9565b925050819055505050565b6060600060058054905067ffffffffffffffff8111156111d8576111d7612870565b5b60405190808252806020026020018201604052801561121157816020015b6111fe61266f565b8152602001906001900390816111f65790505b50905060005b6005805490508110156113f457600260006005838154811061123c5761123b61383e565b5b9060005260206000200160009054906101000a900473ffffffffffffffffffffffffffffffffffffffff1673ffffffffffffffffffffffffffffffffffffffff1673ffffffffffffffffffffffffffffffffffffffff1681526020019081526020016000206040518060a00160405290816000820160009054906101000a900473ffffffffffffffffffffffffffffffffffffffff1673ffffffffffffffffffffffffffffffffffffffff1673ffffffffffffffffffffffffffffffffffffffff1681526020016000820160149054906101000a900460ff1615151515815260200160018201805461132d90613479565b80601f016020809104026020016040519081016040528092919081815260200182805461135990613479565b80156113a65780601f1061137b576101008083540402835291602001916113a6565b820191906000526020600020905b81548152906001019060200180831161138957829003601f168201915b50505050508152602001600282015481526020016003820154815250508282815181106113d6576113d561383e565b5b602002602001018190525080806113ec9061386d565b915050611217565b508091505090565b6000600260003373ffffffffffffffffffffffffffffffffffffffff1673ffffffffffffffffffffffffffffffffffffffff16815260200190815260200160002090506005339080600181540180825580915050600190039060005260206000200160009091909190916101000a81548173ffffffffffffffffffffffffffffffffffffffff021916908373ffffffffffffffffffffffffffffffffffffffff160217905550338160000160006101000a81548173ffffffffffffffffffffffffffffffffffffffff021916908373ffffffffffffffffffffffffffffffffffffffff16021790555060018160000160146101000a81548160ff02191690831515021790555083816001019081611513919061376c565b50828160020181905550818160030181905550826006600082825461153891906138b5565b9250508190555061154960016122db565b50505050565b600060606000806000806000808873ffffffffffffffffffffffffffffffffffffffff1673ffffffffffffffffffffffffffffffffffffffff1681526020019081526020016000206040518060e00160405290816000820160009054906101000a900473ffffffffffffffffffffffffffffffffffffffff1673ffffffffffffffffffffffffffffffffffffffff1673ffffffffffffffffffffffffffffffffffffffff16815260200160018201805461160890613479565b80601f016020809104026020016040519081016040528092919081815260200182805461163490613479565b80156116815780601f1061165657610100808354040283529160200191611681565b820191906000526020600020905b81548152906001019060200180831161166457829003601f168201915b5050505050815260200160028201548152602001600382015481526020016004820154815260200160058201548152602001600682015481525050905080600001518160200151826040015183606001518460800151955095509550955095505091939590929450565b60008060606000806000600260008873ffffffffffffffffffffffffffffffffffffffff1673ffffffffffffffffffffffffffffffffffffffff1681526020019081526020016000206040518060a00160405290816000820160009054906101000a900473ffffffffffffffffffffffffffffffffffffffff1673ffffffffffffffffffffffffffffffffffffffff1673ffffffffffffffffffffffffffffffffffffffff1681526020016000820160149054906101000a900460ff161515151581526020016001820180546117c090613479565b80601f01602080910402602001604051908101604052809291908181526020018280546117ec90613479565b80156118395780601f1061180e57610100808354040283529160200191611839565b820191906000526020600020905b81548152906001019060200180831161181c57829003601f168201915b5050505050815260200160028201548152602001600382015481525050905080600001518160200151826040015183606001518460800151955095509550955095505091939590929450565b60006060806060600060018660405161189e9190613549565b90815260200160405180910390206040518060a00160405290816000820160009054906101000a900473ffffffffffffffffffffffffffffffffffffffff1673ffffffffffffffffffffffffffffffffffffffff1673ffffffffffffffffffffffffffffffffffffffff16815260200160018201805461191d90613479565b80601f016020809104026020016040519081016040528092919081815260200182805461194990613479565b80156119965780601f1061196b57610100808354040283529160200191611996565b820191906000526020600020905b81548152906001019060200180831161197957829003601f168201915b505050505081526020016002820180546119af90613479565b80601f01602080910402602001604051908101604052809291908181526020018280546119db90613479565b8015611a285780601f106119fd57610100808354040283529160200191611a28565b820191906000526020600020905b815481529060010190602001808311611a0b57829003601f168201915b50505050508152602001600382018054611a4190613479565b80601f0160208091040260200160405190810160405280929190818152602001828054611a6d90613479565b8015611aba5780601f10611a8f57610100808354040283529160200191611aba565b820191906000526020600020905b815481529060010190602001808311611a9d57829003601f168201915b50505050508152602001600482018054611ad390613479565b80601f0160208091040260200160405190810160405280929190818152602001828054611aff90613479565b8015611b4c5780601f10611b2157610100808354040283529160200191611b4c565b820191906000526020600020905b815481529060010190602001808311611b2f57829003601f168201915b505050505081525050905080600001518160200151826040015183606001519450945094509450509193509193565b6000600184604051611b8d9190613549565b90815260200160405180910390209050600484908060018154018082558091505060019003906000526020600020016000909190919091509081611bd1919061376c565b50848160000160006101000a81548173ffffffffffffffffffffffffffffffffffffffff021916908373ffffffffffffffffffffffffffffffffffffffff16021790555083816001019081611c26919061376c565b5082816002019081611c38919061376c565b5081816003019081611c4a919061376c565b505050505050565b6060600060048054905067ffffffffffffffff811115611c7557611c74612870565b5b604051908082528060200260200182016040528015611cae57816020015b611c9b6126b6565b815260200190600190039081611c935790505b50905060005b600480549050811015611fd657600160048281548110611cd757611cd661383e565b5b90600052602060002001604051611cee919061397c565b90815260200160405180910390206040518060a00160405290816000820160009054906101000a900473ffffffffffffffffffffffffffffffffffffffff1673ffffffffffffffffffffffffffffffffffffffff1673ffffffffffffffffffffffffffffffffffffffff168152602001600182018054611d6d90613479565b80601f0160208091040260200160405190810160405280929190818152602001828054611d9990613479565b8015611de65780601f10611dbb57610100808354040283529160200191611de6565b820191906000526020600020905b815481529060010190602001808311611dc957829003601f168201915b50505050508152602001600282018054611dff90613479565b80601f0160208091040260200160405190810160405280929190818152602001828054611e2b90613479565b8015611e785780601f10611e4d57610100808354040283529160200191611e78565b820191906000526020600020905b815481529060010190602001808311611e5b57829003601f168201915b50505050508152602001600382018054611e9190613479565b80601f0160208091040260200160405190810160405280929190818152602001828054611ebd90613479565b8015611f0a5780601f10611edf57610100808354040283529160200191611f0a565b820191906000526020600020905b815481529060010190602001808311611eed57829003601f168201915b50505050508152602001600482018054611f2390613479565b80601f0160208091040260200160405190810160405280929190818152602001828054611f4f90613479565b8015611f9c5780601f10611f7157610100808354040283529160200191611f9c565b820191906000526020600020905b815481529060010190602001808311611f7f57829003601f168201915b505050505081525050828281518110611fb857611fb761383e565b5b60200260200101819052508080611fce9061386d565b915050611cb4565b508091505090565b60038181548110611fee57600080fd5b906000526020600020016000915054906101000a900473ffffffffffffffffffffffffffffffffffffffff1681565b60008060003373ffffffffffffffffffffffffffffffffffffffff1673ffffffffffffffffffffffffffffffffffffffff16815260200190815260200160002090506003339080600181540180825580915050600190039060005260206000200160009091909190916101000a81548173ffffffffffffffffffffffffffffffffffffffff021916908373ffffffffffffffffffffffffffffffffffffffff160217905550858160000160006101000a81548173ffffffffffffffffffffffffffffffffffffffff021916908373ffffffffffffffffffffffffffffffffffffffff16021790555084816001019081612116919061376c565b50838160020181905550828160030181905550818160040181905550505050505050565b60026020528060005260406000206000915090508060000160009054906101000a900473ffffffffffffffffffffffffffffffffffffffff16908060000160149054906101000a900460ff169080600101805461219690613479565b80601f01602080910402602001604051908101604052809291908181526020018280546121c290613479565b801561220f5780601f106121e45761010080835404028352916020019161220f565b820191906000526020600020905b8154815290600101906020018083116121f257829003601f168201915b5050505050908060020154908060030154905085565b6004818154811061223557600080fd5b90600052602060002001600091509050805461225090613479565b80601f016020809104026020016040519081016040528092919081815260200182805461227c90613479565b80156122c95780601f1061229e576101008083540402835291602001916122c9565b820191906000526020600020905b8154815290600101906020018083116122ac57829003601f168201915b505050505081565b6000600654905090565b60008060003373ffffffffffffffffffffffffffffffffffffffff1673ffffffffffffffffffffffffffffffffffffffff16815260200190815260200160002090508181600501600082825461233191906134d9565b925050819055505050565b60006020528060005260406000206000915090508060000160009054906101000a900473ffffffffffffffffffffffffffffffffffffffff169080600101805461238590613479565b80601f01602080910402602001604051908101604052809291908181526020018280546123b190613479565b80156123fe5780601f106123d3576101008083540402835291602001916123fe565b820191906000526020600020905b8154815290600101906020018083116123e157829003601f168201915b5050505050908060020154908060030154908060040154908060050154908060060154905087565b6060600060038054905067ffffffffffffffff81111561244957612448612870565b5b60405190808252806020026020018201604052801561248257816020015b61246f6126fb565b8152602001906001900390816124675790505b50905060005b60038054905081101561266757600080600383815481106124ac576124ab61383e565b5b9060005260206000200160009054906101000a900473ffffffffffffffffffffffffffffffffffffffff1673ffffffffffffffffffffffffffffffffffffffff1673ffffffffffffffffffffffffffffffffffffffff1681526020019081526020016000206040518060e00160405290816000820160009054906101000a900473ffffffffffffffffffffffffffffffffffffffff1673ffffffffffffffffffffffffffffffffffffffff1673ffffffffffffffffffffffffffffffffffffffff16815260200160018201805461258290613479565b80601f01602080910402602001604051908101604052809291908181526020018280546125ae90613479565b80156125fb5780601f106125d0576101008083540402835291602001916125fb565b820191906000526020600020905b8154815290600101906020018083116125de57829003601f168201915b50505050508152602001600282015481526020016003820154815260200160048201548152602001600582015481526020016006820154815250508282815181106126495761264861383e565b5b6020026020010181905250808061265f9061386d565b915050612488565b508091505090565b6040518060a00160405280600073ffffffffffffffffffffffffffffffffffffffff1681526020016000151581526020016060815260200160008152602001600081525090565b6040518060a00160405280600073ffffffffffffffffffffffffffffffffffffffff168152602001606081526020016060815260200160608152602001606081525090565b6040518060e00160405280600073ffffffffffffffffffffffffffffffffffffffff1681526020016060815260200160008152602001600081526020016000815260200160008152602001600081525090565b6000819050919050565b6127618161274e565b82525050565b600060208201905061277c6000830184612758565b92915050565b6000604051905090565b600080fd5b600080fd5b600073ffffffffffffffffffffffffffffffffffffffff82169050919050565b60006127c182612796565b9050919050565b6127d1816127b6565b81146127dc57600080fd5b50565b6000813590506127ee816127c8565b92915050565b60006020828403121561280a5761280961278c565b5b6000612818848285016127df565b91505092915050565b6000819050919050565b61283481612821565b82525050565b600060208201905061284f600083018461282b565b92915050565b600080fd5b600080fd5b6000601f19601f8301169050919050565b7f4e487b7100000000000000000000000000000000000000000000000000000000600052604160045260246000fd5b6128a88261285f565b810181811067ffffffffffffffff821117156128c7576128c6612870565b5b80604052505050565b60006128da612782565b90506128e6828261289f565b919050565b600067ffffffffffffffff82111561290657612905612870565b5b61290f8261285f565b9050602081019050919050565b82818337600083830152505050565b600061293e612939846128eb565b6128d0565b90508281526020810184848401111561295a5761295961285a565b5b61296584828561291c565b509392505050565b600082601f83011261298257612981612855565b5b813561299284826020860161292b565b91505092915050565b6000602082840312156129b1576129b061278c565b5b600082013567ffffffffffffffff8111156129cf576129ce612791565b5b6129db8482850161296d565b91505092915050565b600081519050919050565b600082825260208201905092915050565b60005b83811015612a1e578082015181840152602081019050612a03565b60008484015250505050565b6000612a35826129e4565b612a3f81856129ef565b9350612a4f818560208601612a00565b612a588161285f565b840191505092915050565b60006020820190508181036000830152612a7d8184612a2a565b905092915050565b612a8e81612821565b8114612a9957600080fd5b50565b600081359050612aab81612a85565b92915050565b600060208284031215612ac757612ac661278c565b5b6000612ad584828501612a9c565b91505092915050565b612ae7816127b6565b82525050565b6000602082019050612b026000830184612ade565b92915050565b60008060408385031215612b1f57612b1e61278c565b5b600083013567ffffffffffffffff811115612b3d57612b3c612791565b5b612b498582860161296d565b925050602083013567ffffffffffffffff811115612b6a57612b69612791565b5b612b768582860161296d565b9150509250929050565b600060a082019050612b956000830188612ade565b8181036020830152612ba78187612a2a565b90508181036040830152612bbb8186612a2a565b90508181036060830152612bcf8185612a2a565b90508181036080830152612be38184612a2a565b90509695505050505050565b600081519050919050565b600082825260208201905092915050565b6000819050602082019050919050565b612c24816127b6565b82525050565b60008115159050919050565b612c3f81612c2a565b82525050565b600082825260208201905092915050565b6000612c61826129e4565b612c6b8185612c45565b9350612c7b818560208601612a00565b612c848161285f565b840191505092915050565b612c988161274e565b82525050565b600060a083016000830151612cb66000860182612c1b565b506020830151612cc96020860182612c36565b5060408301518482036040860152612ce18282612c56565b9150506060830151612cf66060860182612c8f565b506080830151612d096080860182612c8f565b508091505092915050565b6000612d208383612c9e565b905092915050565b6000602082019050919050565b6000612d4082612bef565b612d4a8185612bfa565b935083602082028501612d5c85612c0b565b8060005b85811015612d985784840389528151612d798582612d14565b9450612d8483612d28565b925060208a01995050600181019050612d60565b50829750879550505050505092915050565b60006020820190508181036000830152612dc48184612d35565b905092915050565b612dd58161274e565b8114612de057600080fd5b50565b600081359050612df281612dcc565b92915050565b600080600060608486031215612e1157612e1061278c565b5b600084013567ffffffffffffffff811115612e2f57612e2e612791565b5b612e3b8682870161296d565b9350506020612e4c86828701612de3565b9250506040612e5d86828701612de3565b9150509250925092565b600060a082019050612e7c6000830188612ade565b8181036020830152612e8e8187612a2a565b9050612e9d604083018661282b565b612eaa606083018561282b565b612eb7608083018461282b565b9695505050505050565b612eca81612c2a565b82525050565b600060a082019050612ee56000830188612ade565b612ef26020830187612ec1565b8181036040830152612f048186612a2a565b9050612f136060830185612758565b612f206080830184612758565b9695505050505050565b6000608082019050612f3f6000830187612ade565b8181036020830152612f518186612a2a565b90508181036040830152612f658185612a2a565b90508181036060830152612f798184612a2a565b905095945050505050565b60008060008060808587031215612f9e57612f9d61278c565b5b6000612fac878288016127df565b945050602085013567ffffffffffffffff811115612fcd57612fcc612791565b5b612fd98782880161296d565b935050604085013567ffffffffffffffff811115612ffa57612ff9612791565b5b6130068782880161296d565b925050606085013567ffffffffffffffff81111561302757613026612791565b5b6130338782880161296d565b91505092959194509250565b600081519050919050565b600082825260208201905092915050565b6000819050602082019050919050565b600060a0830160008301516130836000860182612c1b565b506020830151848203602086015261309b8282612c56565b915050604083015184820360408601526130b58282612c56565b915050606083015184820360608601526130cf8282612c56565b915050608083015184820360808601526130e98282612c56565b9150508091505092915050565b6000613102838361306b565b905092915050565b6000602082019050919050565b60006131228261303f565b61312c818561304a565b93508360208202850161313e8561305b565b8060005b8581101561317a578484038952815161315b85826130f6565b94506131668361310a565b925060208a01995050600181019050613142565b50829750879550505050505092915050565b600060208201905081810360008301526131a68184613117565b905092915050565b600080600080600060a086880312156131ca576131c961278c565b5b60006131d8888289016127df565b955050602086013567ffffffffffffffff8111156131f9576131f8612791565b5b6132058882890161296d565b945050604061321688828901612a9c565b935050606061322788828901612a9c565b925050608061323888828901612a9c565b9150509295509295909350565b600060e08201905061325a600083018a612ade565b818103602083015261326c8189612a2a565b905061327b604083018861282b565b613288606083018761282b565b613295608083018661282b565b6132a260a083018561282b565b6132af60c083018461282b565b98975050505050505050565b600081519050919050565b600082825260208201905092915050565b6000819050602082019050919050565b6132f081612821565b82525050565b600060e08301600083015161330e6000860182612c1b565b50602083015184820360208601526133268282612c56565b915050604083015161333b60408601826132e7565b50606083015161334e60608601826132e7565b50608083015161336160808601826132e7565b5060a083015161337460a08601826132e7565b5060c083015161338760c08601826132e7565b508091505092915050565b600061339e83836132f6565b905092915050565b6000602082019050919050565b60006133be826132bb565b6133c881856132c6565b9350836020820285016133da856132d7565b8060005b8581101561341657848403895281516133f78582613392565b9450613402836133a6565b925060208a019950506001810190506133de565b50829750879550505050505092915050565b6000602082019050818103600083015261344281846133b3565b905092915050565b7f4e487b7100000000000000000000000000000000000000000000000000000000600052602260045260246000fd5b6000600282049050600182168061349157607f821691505b6020821081036134a4576134a361344a565b5b50919050565b7f4e487b7100000000000000000000000000000000000000000000000000000000600052601160045260246000fd5b60006134e482612821565b91506134ef83612821565b9250828201905080821115613507576135066134aa565b5b92915050565b600081905092915050565b6000613523826129e4565b61352d818561350d565b935061353d818560208601612a00565b80840191505092915050565b60006135558284613518565b915081905092915050565b7f4e487b7100000000000000000000000000000000000000000000000000000000600052601260045260246000fd5b600061359a82612821565b91506135a583612821565b9250826135b5576135b4613560565b5b828204905092915050565b60008190508160005260206000209050919050565b60006020601f8301049050919050565b600082821b905092915050565b6000600883026136227fffffffffffffffffffffffffffffffffffffffffffffffffffffffffffffffff826135e5565b61362c86836135e5565b95508019841693508086168417925050509392505050565b6000819050919050565b600061366961366461365f84612821565b613644565b612821565b9050919050565b6000819050919050565b6136838361364e565b61369761368f82613670565b8484546135f2565b825550505050565b600090565b6136ac61369f565b6136b781848461367a565b505050565b5b818110156136db576136d06000826136a4565b6001810190506136bd565b5050565b601f821115613720576136f1816135c0565b6136fa846135d5565b81016020851015613709578190505b61371d613715856135d5565b8301826136bc565b50505b505050565b600082821c905092915050565b600061374360001984600802613725565b1980831691505092915050565b600061375c8383613732565b9150826002028217905092915050565b613775826129e4565b67ffffffffffffffff81111561378e5761378d612870565b5b6137988254613479565b6137a38282856136df565b600060209050601f8311600181146137d657600084156137c4578287015190505b6137ce8582613750565b865550613836565b601f1984166137e4866135c0565b60005b8281101561380c578489015182556001820191506020850194506020810190506137e7565b868310156138295784890151613825601f891682613732565b8355505b6001600288020188555050505b505050505050565b7f4e487b7100000000000000000000000000000000000000000000000000000000600052603260045260246000fd5b600061387882612821565b91507fffffffffffffffffffffffffffffffffffffffffffffffffffffffffffffffff82036138aa576138a96134aa565b5b600182019050919050565b60006138c08261274e565b91506138cb8361274e565b9250828201905082811215600083121683821260008412151617156138f3576138f26134aa565b5b92915050565b6000815461390681613479565b613910818661350d565b9450600182166000811461392b576001811461394057613973565b60ff1983168652811515820286019350613973565b613949856135c0565b60005b8381101561396b5781548189015260018201915060208101905061394c565b838801955050505b50505092915050565b600061398882846138f9565b91508190509291505056fea26469706673582212201c0cd275297d0e3959da0a3fccd5cddf1d43aa242fcd04189becfb048a64656d64736f6c63430008130033",
  "immutableReferences": {},
  "source": "// SPDX-License-Identifier: MIT\r\n\r\npragma solidity >= 0.8.0 < 0.9.0;\r\n\r\ncontract Veritru {\r\n    struct Reviewer {\r\n        address reviewer_address;\r\n        string username;\r\n        uint tenure;\r\n        uint organization;\r\n        uint role;\r\n        uint frequency;\r\n        uint accuracy;\r\n    }\r\n\r\n    struct Article {\r\n        address uploader;\r\n        string ipfs_cid;\r\n        string headline;\r\n        string category;\r\n        string result;\r\n    }\r\n\r\n    struct Vote {\r\n        address voter;\r\n        bool voted;\r\n        string ipfs_cid;\r\n        int vote;\r\n        int confidence;\r\n    }\r\n\r\n    mapping(address => Reviewer) public reviewers;\r\n    mapping(string => Article) public articles;\r\n    mapping(address => Vote) public votes;\r\n\r\n    // // // // // // // // // // // //\r\n    // //      FOR REVIEWER      // //\r\n    // // // // // // // // // // //\r\n    address[] public reviewerMappingKeys;\r\n\r\n    function createReviewer(\r\n        address _reviewer_address,\r\n        string memory _username,\r\n        uint _tenure, \r\n        uint _organization, \r\n        uint _role\r\n    ) public {\r\n        Reviewer storage v = reviewers[msg.sender];\r\n        reviewerMappingKeys.push(msg.sender);\r\n        v.reviewer_address = _reviewer_address;\r\n        v.username = _username;\r\n        v.tenure = _tenure;\r\n        v.organization = _organization;\r\n        v.role = _role;\r\n    }\r\n\r\n    function getReviewer(address _addr) public view returns (\r\n        address, string memory, uint, uint, uint\r\n    ) {\r\n        Reviewer memory v = reviewers[_addr];\r\n        return (\r\n            v.reviewer_address,\r\n            v.username,\r\n            v.tenure,\r\n            v.organization,\r\n            v.role\r\n        );\r\n    }\r\n\r\n    function getAllReviewers() public view returns (Reviewer[] memory){\r\n        Reviewer[] memory result = new Reviewer[](reviewerMappingKeys.length);\r\n        for (uint i = 0; i < reviewerMappingKeys.length; i++) {\r\n            result[i] = reviewers[reviewerMappingKeys[i]];\r\n        }\r\n        return result;\r\n    }\r\n\r\n    // // // // // // // // // // // //\r\n    // //      FOR ARTICLE      // //\r\n    // // // // // // // // // // //\r\n    string[] public articleMappingKeys;\r\n\r\n    function createArticle(\r\n        address _uploader,\r\n        string memory _ipfs_cid,\r\n        string memory _headline,\r\n        string memory _category\r\n    ) public {\r\n        Article storage v = articles[_ipfs_cid];\r\n        articleMappingKeys.push(_ipfs_cid);\r\n        v.uploader = _uploader;\r\n        v.ipfs_cid = _ipfs_cid;\r\n        v.headline = _headline;\r\n        v.category = _category;\r\n    }\r\n\r\n    function getArticle(string memory _ipfs_cid) public view returns (\r\n        address, string memory, string memory, string memory\r\n    ) {\r\n        Article memory v = articles[_ipfs_cid];\r\n        return (\r\n            v.uploader,\r\n            v.ipfs_cid,\r\n            v.headline,\r\n            v.category\r\n        );\r\n    }\r\n\r\n    function getAllArticles() public view returns (Article[] memory){\r\n        Article[] memory result = new Article[](articleMappingKeys.length);\r\n        for (uint i = 0; i < articleMappingKeys.length; i++) {\r\n            result[i] = articles[articleMappingKeys[i]];\r\n        }\r\n        return result;\r\n    }\r\n\r\n    // // // // // // // // // // // //\r\n    // //        FOR VOTE        // //\r\n    // // // // // // // // // // //\r\n    address[] public voteMappingKeys;\r\n    int public totalVotes;\r\n\r\n    function setVote(\r\n        string memory _ipfs_cid,\r\n        int _vote, \r\n        int _confidence\r\n    ) public {\r\n        Vote storage v = votes[msg.sender];\r\n        voteMappingKeys.push(msg.sender);\r\n\r\n        v.voter = msg.sender;\r\n        v.voted = true;\r\n\r\n        v.ipfs_cid = _ipfs_cid;\r\n        v.vote = _vote;\r\n        v.confidence = _confidence;\r\n\r\n        totalVotes += _vote;\r\n        setFrequency(1);\r\n    }\r\n\r\n    function getVote(address _addr) public view returns (\r\n        address, bool, string memory, int, int\r\n    ) {\r\n        Vote memory v = votes[_addr];\r\n        return (\r\n            v.voter,\r\n            v.voted,\r\n            v.ipfs_cid,\r\n            v.vote,\r\n            v.confidence\r\n        );\r\n    }\r\n\r\n    function getAllVotes() public view returns (Vote[] memory) {\r\n        Vote[] memory result = new Vote[](voteMappingKeys.length);\r\n        for (uint i = 0; i < voteMappingKeys.length; i++) {\r\n            result[i] = votes[voteMappingKeys[i]];\r\n        }\r\n        return result;\r\n    }\r\n\r\n    function getSumVotes() public view returns (int) {\r\n        return totalVotes;\r\n    }\r\n\r\n    // // // // // // // // // // // // // //\r\n    // //      FREQUENCY OF VOTE       // //\r\n    // // // // // // // // // // // // //\r\n    function setFrequency(uint _frequency) public {\r\n        Reviewer storage v = reviewers[msg.sender];\r\n        v.frequency += _frequency;\r\n    }\r\n\r\n    function getFrequency(address _addr) public view returns (uint) {\r\n        Reviewer memory v = reviewers[_addr];\r\n        return v.frequency;\r\n    }\r\n\r\n    // // // // // // // // // // // // // //\r\n    // //       ACCURACY OF VOTE       // //\r\n    // // // // // // // // // // // // //\r\n    function setAccuracy(uint _accuracy) public {\r\n        Reviewer storage v = reviewers[msg.sender];\r\n        v.accuracy += _accuracy;\r\n    }\r\n\r\n    function getAccuracy(address _addr) public view returns (uint) {\r\n        Reviewer memory v = reviewers[_addr];\r\n        return v.accuracy;\r\n    }\r\n\r\n    // // // // // // // // // // // // // //\r\n    //  COMPUTE REVIEWER EXP = EXP SCORE  //\r\n    // // // // // // // // // // // // //\r\n    function calcExpScore(address _addr) public view returns (uint) {\r\n        Reviewer memory v = reviewers[_addr];\r\n        return v.tenure + v.organization + v.role;\r\n    }\r\n\r\n    // // // // // // // // // // // // // // // // // // //\r\n    //  COMPUTE ACCURACY / FREQUENCY = REPUTATION SCORE  //\r\n    // // // // // // // // // // // // // // // // // //\r\n    function calcReputationScore(address _addr) public view returns (uint) {\r\n        Reviewer memory v = reviewers[_addr];\r\n        return (v.accuracy / v.frequency);\r\n    }\r\n\r\n    // // // // // // // // // // // \r\n    // //       RESULT        // //\r\n    // // // // // // // // // //\r\n    function setResult(\r\n        string memory _ipfs_cid, \r\n        string memory _result\r\n    ) public {\r\n        Article storage v = articles[_ipfs_cid];\r\n        v.result = _result;\r\n    }\r\n\r\n    function getResult(\r\n        string memory _ipfs_cid\r\n    ) public view returns (string memory) {\r\n        Article memory v = articles[_ipfs_cid];\r\n        return v.result;\r\n    }\r\n}",
  "sourcePath": "D:\\Projects\\veritru\\ethereum\\contracts\\Veritru.sol",
  "compiler": {
    "name": "solc",
    "version": "0.8.19+commit.7dd6d404.Emscripten.clang"
  },
  "schemaVersion": "3.4.12",
  "updatedAt": "2023-03-12T23:29:31.676Z",
  "networkType": "ethereum",
  "devdoc": {
    "kind": "dev",
    "methods": {},
    "version": 1
  },
  "userdoc": {
    "kind": "user",
    "methods": {},
    "version": 1
  }
}