{
  "contractName": "Veritru",
  "abi": [
    {
      "inputs": [
        {
          "internalType": "string",
          "name": "",
          "type": "string"
        }
      ],
      "name": "articles",
      "outputs": [
        {
          "internalType": "string",
          "name": "ipfs_cid",
          "type": "string"
        },
        {
          "internalType": "bool",
          "name": "exists",
          "type": "bool"
        }
      ],
      "stateMutability": "view",
      "type": "function"
    },
    {
      "inputs": [
        {
          "internalType": "string",
          "name": "_ipfs_cid",
          "type": "string"
        },
        {
          "internalType": "bool",
          "name": "_vote",
          "type": "bool"
        }
      ],
      "name": "vote",
      "outputs": [],
      "stateMutability": "nonpayable",
      "type": "function"
    },
    {
      "inputs": [
        {
          "internalType": "string",
          "name": "_ipfs_cid",
          "type": "string"
        },
        {
          "internalType": "address",
          "name": "_voter",
          "type": "address"
        }
      ],
      "name": "getArticleVote",
      "outputs": [
        {
          "internalType": "bool",
          "name": "",
          "type": "bool"
        }
      ],
      "stateMutability": "view",
      "type": "function"
    },
    {
      "inputs": [
        {
          "internalType": "string",
          "name": "_ipfs_cid",
          "type": "string"
        }
      ],
      "name": "getArticleTrueVotes",
      "outputs": [
        {
          "internalType": "uint256",
          "name": "",
          "type": "uint256"
        }
      ],
      "stateMutability": "view",
      "type": "function"
    },
    {
      "inputs": [
        {
          "internalType": "string",
          "name": "_ipfs_cid",
          "type": "string"
        }
      ],
      "name": "getArticleFalseVotes",
      "outputs": [
        {
          "internalType": "uint256",
          "name": "",
          "type": "uint256"
        }
      ],
      "stateMutability": "view",
      "type": "function"
    },
    {
      "inputs": [
        {
          "internalType": "string",
          "name": "_ipfs_cid",
          "type": "string"
        }
      ],
      "name": "getArticleTotalVotes",
      "outputs": [
        {
          "internalType": "uint256",
          "name": "",
          "type": "uint256"
        }
      ],
      "stateMutability": "view",
      "type": "function"
    },
    {
      "inputs": [
        {
          "internalType": "string",
          "name": "_ipfs_cid",
          "type": "string"
        }
      ],
      "name": "getArticleOutcome",
      "outputs": [
        {
          "internalType": "string",
          "name": "",
          "type": "string"
        }
      ],
      "stateMutability": "view",
      "type": "function"
    }
  ],
  "bytecode": "0x608060405234801561001057600080fd5b50611572806100206000396000f3fe608060405234801561001057600080fd5b506004361061007d5760003560e01c80637c702b8d1161005b5780637c702b8d146100fe57806380bfbd221461012f578063bf170a2e1461015f578063db4467a61461018f5761007d565b8063084faa4c1461008257806327d3410c146100b257806359bf8c86146100ce575b600080fd5b61009c60048036038101906100979190610c7b565b6101bf565b6040516100a99190610d43565b60405180910390f35b6100cc60048036038101906100c79190610d9d565b610410565b005b6100e860048036038101906100e39190610c7b565b610667565b6040516100f59190610e12565b60405180910390f35b61011860048036038101906101139190610c7b565b6106eb565b604051610126929190610e3c565b60405180910390f35b61014960048036038101906101449190610eca565b6107ba565b6040516101569190610f26565b60405180910390f35b61017960048036038101906101749190610c7b565b610886565b6040516101869190610e12565b60405180910390f35b6101a960048036038101906101a49190610c7b565b6109d4565b6040516101b69190610e12565b60405180910390f35b6060600080836040516101d29190610f7d565b908152602001604051809103902090508060010160009054906101000a900460ff16610233576040517f08c379a000000000000000000000000000000000000000000000000000000000815260040161022a90611006565b60405180910390fd5b60008060005b83600401805490508110156103175760008460040182815481106102605761025f611026565b5b9060005260206000200160009054906101000a900473ffffffffffffffffffffffffffffffffffffffff1690508460030160008273ffffffffffffffffffffffffffffffffffffffff1673ffffffffffffffffffffffffffffffffffffffff16815260200190815260200160002060009054906101000a900460ff16156102f45783806102ec90611084565b945050610303565b82806102ff90611084565b9350505b50808061030f90611084565b915050610239565b506000818361032691906110cc565b90506000600282610337919061112f565b905080841115610383576040518060400160405280600481526020017f54727565000000000000000000000000000000000000000000000000000000008152509550505050505061040b565b808311156103cd576040518060400160405280600581526020017f46616c73650000000000000000000000000000000000000000000000000000008152509550505050505061040b565b6040518060400160405280600c81526020017f556e64657465726d696e65640000000000000000000000000000000000000000815250955050505050505b919050565b600080836040516104219190610f7d565b908152602001604051809103902090508060010160009054906101000a900460ff166104bb57600083511161048b576040517f08c379a0000000000000000000000000000000000000000000000000000000008152600401610482906111ac565b60405180910390fd5b8281600001908161049c91906113d8565b5060018160010160006101000a81548160ff0219169083151502179055505b8060020160003373ffffffffffffffffffffffffffffffffffffffff1673ffffffffffffffffffffffffffffffffffffffff16815260200190815260200160002060009054906101000a900460ff161561054a576040517f08c379a00000000000000000000000000000000000000000000000000000000081526004016105419061151c565b60405180910390fd5b818160030160003373ffffffffffffffffffffffffffffffffffffffff1673ffffffffffffffffffffffffffffffffffffffff16815260200190815260200160002060006101000a81548160ff02191690831515021790555060018160020160003373ffffffffffffffffffffffffffffffffffffffff1673ffffffffffffffffffffffffffffffffffffffff16815260200190815260200160002060006101000a81548160ff02191690831515021790555080600401339080600181540180825580915050600190039060005260206000200160009091909190916101000a81548173ffffffffffffffffffffffffffffffffffffffff021916908373ffffffffffffffffffffffffffffffffffffffff160217905550505050565b60008060008360405161067a9190610f7d565b908152602001604051809103902090508060010160009054906101000a900460ff166106db576040517f08c379a00000000000000000000000000000000000000000000000000000000081526004016106d290611006565b60405180910390fd5b8060040180549050915050919050565b600081805160208101820180518482526020830160208501208183528095505050505050600091509050806000018054610724906111fb565b80601f0160208091040260200160405190810160405280929190818152602001828054610750906111fb565b801561079d5780601f106107725761010080835404028352916020019161079d565b820191906000526020600020905b81548152906001019060200180831161078057829003601f168201915b5050505050908060010160009054906101000a900460ff16905082565b6000806000846040516107cd9190610f7d565b908152602001604051809103902090508060010160009054906101000a900460ff1661082e576040517f08c379a000000000000000000000000000000000000000000000000000000000815260040161082590611006565b60405180910390fd5b8060030160008473ffffffffffffffffffffffffffffffffffffffff1673ffffffffffffffffffffffffffffffffffffffff16815260200190815260200160002060009054906101000a900460ff1691505092915050565b6000806000836040516108999190610f7d565b908152602001604051809103902090508060010160009054906101000a900460ff166108fa576040517f08c379a00000000000000000000000000000000000000000000000000000000081526004016108f190611006565b60405180910390fd5b6000805b82600401805490508110156109c957600083600401828154811061092557610924611026565b5b9060005260206000200160009054906101000a900473ffffffffffffffffffffffffffffffffffffffff1690508360030160008273ffffffffffffffffffffffffffffffffffffffff1673ffffffffffffffffffffffffffffffffffffffff16815260200190815260200160002060009054906101000a900460ff16156109b55782806109b190611084565b9350505b5080806109c190611084565b9150506108fe565b508092505050919050565b6000806000836040516109e79190610f7d565b908152602001604051809103902090508060010160009054906101000a900460ff16610a48576040517f08c379a0000000000000000000000000000000000000000000000000000000008152600401610a3f90611006565b60405180910390fd5b6000805b8260040180549050811015610b16576000836004018281548110610a7357610a72611026565b5b9060005260206000200160009054906101000a900473ffffffffffffffffffffffffffffffffffffffff1690508360030160008273ffffffffffffffffffffffffffffffffffffffff1673ffffffffffffffffffffffffffffffffffffffff16815260200190815260200160002060009054906101000a900460ff16610b02578280610afe90611084565b9350505b508080610b0e90611084565b915050610a4c565b508092505050919050565b6000604051905090565b600080fd5b600080fd5b600080fd5b600080fd5b6000601f19601f8301169050919050565b7f4e487b7100000000000000000000000000000000000000000000000000000000600052604160045260246000fd5b610b8882610b3f565b810181811067ffffffffffffffff82111715610ba757610ba6610b50565b5b80604052505050565b6000610bba610b21565b9050610bc68282610b7f565b919050565b600067ffffffffffffffff821115610be657610be5610b50565b5b610bef82610b3f565b9050602081019050919050565b82818337600083830152505050565b6000610c1e610c1984610bcb565b610bb0565b905082815260208101848484011115610c3a57610c39610b3a565b5b610c45848285610bfc565b509392505050565b600082601f830112610c6257610c61610b35565b5b8135610c72848260208601610c0b565b91505092915050565b600060208284031215610c9157610c90610b2b565b5b600082013567ffffffffffffffff811115610caf57610cae610b30565b5b610cbb84828501610c4d565b91505092915050565b600081519050919050565b600082825260208201905092915050565b60005b83811015610cfe578082015181840152602081019050610ce3565b60008484015250505050565b6000610d1582610cc4565b610d1f8185610ccf565b9350610d2f818560208601610ce0565b610d3881610b3f565b840191505092915050565b60006020820190508181036000830152610d5d8184610d0a565b905092915050565b60008115159050919050565b610d7a81610d65565b8114610d8557600080fd5b50565b600081359050610d9781610d71565b92915050565b60008060408385031215610db457610db3610b2b565b5b600083013567ffffffffffffffff811115610dd257610dd1610b30565b5b610dde85828601610c4d565b9250506020610def85828601610d88565b9150509250929050565b6000819050919050565b610e0c81610df9565b82525050565b6000602082019050610e276000830184610e03565b92915050565b610e3681610d65565b82525050565b60006040820190508181036000830152610e568185610d0a565b9050610e656020830184610e2d565b9392505050565b600073ffffffffffffffffffffffffffffffffffffffff82169050919050565b6000610e9782610e6c565b9050919050565b610ea781610e8c565b8114610eb257600080fd5b50565b600081359050610ec481610e9e565b92915050565b60008060408385031215610ee157610ee0610b2b565b5b600083013567ffffffffffffffff811115610eff57610efe610b30565b5b610f0b85828601610c4d565b9250506020610f1c85828601610eb5565b9150509250929050565b6000602082019050610f3b6000830184610e2d565b92915050565b600081905092915050565b6000610f5782610cc4565b610f618185610f41565b9350610f71818560208601610ce0565b80840191505092915050565b6000610f898284610f4c565b915081905092915050565b7f41727469636c652077697468207468697320495046532043494420646f65732060008201527f6e6f742065786973740000000000000000000000000000000000000000000000602082015250565b6000610ff0602983610ccf565b9150610ffb82610f94565b604082019050919050565b6000602082019050818103600083015261101f81610fe3565b9050919050565b7f4e487b7100000000000000000000000000000000000000000000000000000000600052603260045260246000fd5b7f4e487b7100000000000000000000000000000000000000000000000000000000600052601160045260246000fd5b600061108f82610df9565b91507fffffffffffffffffffffffffffffffffffffffffffffffffffffffffffffffff82036110c1576110c0611055565b5b600182019050919050565b60006110d782610df9565b91506110e283610df9565b92508282019050808211156110fa576110f9611055565b5b92915050565b7f4e487b7100000000000000000000000000000000000000000000000000000000600052601260045260246000fd5b600061113a82610df9565b915061114583610df9565b92508261115557611154611100565b5b828204905092915050565b7f49504653204349442063616e6e6f7420626520656d7074790000000000000000600082015250565b6000611196601883610ccf565b91506111a182611160565b602082019050919050565b600060208201905081810360008301526111c581611189565b9050919050565b7f4e487b7100000000000000000000000000000000000000000000000000000000600052602260045260246000fd5b6000600282049050600182168061121357607f821691505b602082108103611226576112256111cc565b5b50919050565b60008190508160005260206000209050919050565b60006020601f8301049050919050565b600082821b905092915050565b60006008830261128e7fffffffffffffffffffffffffffffffffffffffffffffffffffffffffffffffff82611251565b6112988683611251565b95508019841693508086168417925050509392505050565b6000819050919050565b60006112d56112d06112cb84610df9565b6112b0565b610df9565b9050919050565b6000819050919050565b6112ef836112ba565b6113036112fb826112dc565b84845461125e565b825550505050565b600090565b61131861130b565b6113238184846112e6565b505050565b5b818110156113475761133c600082611310565b600181019050611329565b5050565b601f82111561138c5761135d8161122c565b61136684611241565b81016020851015611375578190505b61138961138185611241565b830182611328565b50505b505050565b600082821c905092915050565b60006113af60001984600802611391565b1980831691505092915050565b60006113c8838361139e565b9150826002028217905092915050565b6113e182610cc4565b67ffffffffffffffff8111156113fa576113f9610b50565b5b61140482546111fb565b61140f82828561134b565b600060209050601f8311600181146114425760008415611430578287015190505b61143a85826113bc565b8655506114a2565b601f1984166114508661122c565b60005b8281101561147857848901518255600182019150602085019450602081019050611453565b868310156114955784890151611491601f89168261139e565b8355505b6001600288020188555050505b505050505050565b7f596f75206861766520616c726561647920766f74656420666f7220746869732060008201527f61727469636c6500000000000000000000000000000000000000000000000000602082015250565b6000611506602783610ccf565b9150611511826114aa565b604082019050919050565b60006020820190508181036000830152611535816114f9565b905091905056fea2646970667358221220e4838d287208b37289c2a18c78edad43532e07bd5f17139244fb895243c1ab4d64736f6c63430008130033",
  "immutableReferences": {},
  "source": "// SPDX-License-Identifier: MIT\r\n\r\npragma solidity ^0.8.0;\r\n\r\ncontract Veritru {\r\n\r\n    struct Article {\r\n        string ipfs_cid;\r\n        bool exists;\r\n        mapping(address => bool) hasVoted;\r\n        mapping(address => bool) votes;\r\n        address[] voters;\r\n    }\r\n\r\n    mapping(string => Article) public articles;\r\n\r\n    // function submitArticle(string memory _ipfs_cid) public {\r\n    //     require(bytes(_ipfs_cid).length > 0, \"IPFS CID cannot be empty\");\r\n    //     require(!articles[_ipfs_cid].exists, \"Article with this IPFS CID already exists\");\r\n\r\n    //     Article storage newArticle = articles[_ipfs_cid];\r\n    //     newArticle.ipfs_cid = _ipfs_cid;\r\n    //     newArticle.exists = true;\r\n    // }\r\n\r\n    // // // // // // // // // // // // // //\r\n    // //   CAST VOTE OF THE REVIEWER  // //\r\n    // // // // // // // // // // // // //\r\n    function vote(string memory _ipfs_cid, bool _vote) public {\r\n        Article storage article = articles[_ipfs_cid];\r\n\r\n        // Check if the article exists, if not, create it\r\n        // After that, it proceeds with the vote\r\n        if (!article.exists) {\r\n            require(bytes(_ipfs_cid).length > 0, \"IPFS CID cannot be empty\");\r\n\r\n            article.ipfs_cid = _ipfs_cid;\r\n            article.exists = true;\r\n        }\r\n        \r\n        // If article already exists, continue to vote\r\n        // Check if reviewer already voted\r\n        require(!article.hasVoted[msg.sender], \"You have already voted for this article\");\r\n\r\n        article.votes[msg.sender] = _vote;\r\n        article.hasVoted[msg.sender] = true;\r\n        article.voters.push(msg.sender);\r\n    }\r\n\r\n    // // // // // // // // // // // // // //\r\n    // //   GET VOTE OF THE REVIEWER   // //\r\n    // // // // // // // // // // // // //\r\n    function getArticleVote(string memory _ipfs_cid, address _voter) public view returns (bool) {\r\n        Article storage article = articles[_ipfs_cid];\r\n        require(article.exists, \"Article with this IPFS CID does not exist\");\r\n\r\n        return article.votes[_voter];\r\n    }\r\n\r\n    // // // // // // // // // // // // //\r\n    // //    GET TOTAL TRUE VOTES   // //\r\n    // // // // // // // // // // // //\r\n    function getArticleTrueVotes(string memory _ipfs_cid) public view returns (uint) {\r\n        Article storage article = articles[_ipfs_cid];\r\n        require(article.exists, \"Article with this IPFS CID does not exist\");\r\n\r\n        uint trueVotes = 0;\r\n\r\n        for (uint i = 0; i < article.voters.length; i++) {\r\n            address voter = article.voters[i];\r\n            if (article.votes[voter]) {\r\n                trueVotes++;\r\n            }\r\n        }\r\n\r\n        return trueVotes;\r\n    }\r\n\r\n    // // // // // // // // // // // // //\r\n    // //   GET TOTAL FALSE VOTES   // //\r\n    // // // // // // // // // // // //\r\n    function getArticleFalseVotes(string memory _ipfs_cid) public view returns (uint) {\r\n        Article storage article = articles[_ipfs_cid];\r\n        require(article.exists, \"Article with this IPFS CID does not exist\");\r\n\r\n        uint falseVotes = 0;\r\n        for (uint i = 0; i < article.voters.length; i++) {\r\n            address voter = article.voters[i];\r\n            if (!article.votes[voter]) {\r\n                falseVotes++;\r\n            }\r\n        }\r\n\r\n        return falseVotes;\r\n    }\r\n\r\n    // // // // // // // // // //\r\n    // //   TOTAL VOTES    // //\r\n    // // // // // // // // //\r\n    function getArticleTotalVotes(string memory _ipfs_cid) public view returns (uint) {\r\n        Article storage article = articles[_ipfs_cid];\r\n        require(article.exists, \"Article with this IPFS CID does not exist\");\r\n\r\n        return article.voters.length;\r\n    }\r\n\r\n    // // // // // // // // // // // // // // // // // // // // // // //\r\n    // //   OUTCOME OF THE VOTES BASED ON MAJORITY VOTING MODEL   // //\r\n    // // // // // // // // // // // // // // // // // // // // // //\r\n    function getArticleOutcome(string memory _ipfs_cid) public view returns (string memory) {\r\n        Article storage article = articles[_ipfs_cid];\r\n        require(article.exists, \"Article with this IPFS CID does not exist\");\r\n\r\n        uint trueVotes = 0;\r\n        uint falseVotes = 0;\r\n        for (uint i = 0; i < article.voters.length; i++) {\r\n            address voter = article.voters[i];\r\n            if (article.votes[voter]) {\r\n                trueVotes++;\r\n            } else {\r\n                falseVotes++;\r\n            }\r\n        }\r\n\r\n        uint totalVotes = trueVotes + falseVotes;\r\n        uint threshold = totalVotes / 2;\r\n\r\n        if (trueVotes > threshold) {\r\n            return \"True\";\r\n        } else if (falseVotes > threshold) {\r\n            return \"False\";\r\n        } else {\r\n            return \"Undetermined\";\r\n        }\r\n    }\r\n}\r\n",
  "sourcePath": "D:\\Projects\\veritru\\ethereum\\contracts\\Veritru.sol",
  "compiler": {
    "name": "solc",
    "version": "0.8.19+commit.7dd6d404.Emscripten.clang"
  },
  "schemaVersion": "3.4.12",
  "updatedAt": "2023-03-20T23:02:34.409Z",
  "devdoc": {
    "kind": "dev",
    "methods": {},
    "version": 1
  },
  "userdoc": {
    "kind": "user",
    "methods": {},
    "version": 1
  }
}