{
  "contractName": "Veritru",
  "abi": [
    {
      "inputs": [
        {
          "internalType": "uint256",
          "name": "",
          "type": "uint256"
        }
      ],
      "name": "articleMappingKeys",
      "outputs": [
        {
          "internalType": "string",
          "name": "",
          "type": "string"
        }
      ],
      "stateMutability": "view",
      "type": "function"
    },
    {
      "inputs": [
        {
          "internalType": "string",
          "name": "",
          "type": "string"
        }
      ],
      "name": "articles",
      "outputs": [
        {
          "internalType": "address",
          "name": "uploader",
          "type": "address"
        },
        {
          "internalType": "string",
          "name": "ipfs_cid",
          "type": "string"
        },
        {
          "internalType": "string",
          "name": "headline",
          "type": "string"
        },
        {
          "internalType": "string",
          "name": "category",
          "type": "string"
        },
        {
          "internalType": "string",
          "name": "result",
          "type": "string"
        }
      ],
      "stateMutability": "view",
      "type": "function"
    },
    {
      "inputs": [
        {
          "internalType": "uint256",
          "name": "",
          "type": "uint256"
        }
      ],
      "name": "reviewerMappingKeys",
      "outputs": [
        {
          "internalType": "address",
          "name": "",
          "type": "address"
        }
      ],
      "stateMutability": "view",
      "type": "function"
    },
    {
      "inputs": [
        {
          "internalType": "address",
          "name": "",
          "type": "address"
        }
      ],
      "name": "reviewers",
      "outputs": [
        {
          "internalType": "address",
          "name": "reviewer_address",
          "type": "address"
        },
        {
          "internalType": "string",
          "name": "username",
          "type": "string"
        },
        {
          "internalType": "uint256",
          "name": "tenure",
          "type": "uint256"
        },
        {
          "internalType": "uint256",
          "name": "organization",
          "type": "uint256"
        },
        {
          "internalType": "uint256",
          "name": "role",
          "type": "uint256"
        },
        {
          "internalType": "uint256",
          "name": "frequency",
          "type": "uint256"
        },
        {
          "internalType": "uint256",
          "name": "accuracy",
          "type": "uint256"
        }
      ],
      "stateMutability": "view",
      "type": "function"
    },
    {
      "inputs": [],
      "name": "totalVotes",
      "outputs": [
        {
          "internalType": "int256",
          "name": "",
          "type": "int256"
        }
      ],
      "stateMutability": "view",
      "type": "function"
    },
    {
      "inputs": [
        {
          "internalType": "uint256",
          "name": "",
          "type": "uint256"
        }
      ],
      "name": "voteMappingKeys",
      "outputs": [
        {
          "internalType": "address",
          "name": "",
          "type": "address"
        }
      ],
      "stateMutability": "view",
      "type": "function"
    },
    {
      "inputs": [
        {
          "internalType": "address",
          "name": "",
          "type": "address"
        }
      ],
      "name": "votes",
      "outputs": [
        {
          "internalType": "address",
          "name": "voter",
          "type": "address"
        },
        {
          "internalType": "bool",
          "name": "voted",
          "type": "bool"
        },
        {
          "internalType": "string",
          "name": "ipfs_cid",
          "type": "string"
        },
        {
          "internalType": "int256",
          "name": "vote",
          "type": "int256"
        },
        {
          "internalType": "int256",
          "name": "confidence",
          "type": "int256"
        }
      ],
      "stateMutability": "view",
      "type": "function"
    },
    {
      "inputs": [
        {
          "internalType": "address",
          "name": "_reviewer_address",
          "type": "address"
        },
        {
          "internalType": "string",
          "name": "_username",
          "type": "string"
        },
        {
          "internalType": "uint256",
          "name": "_tenure",
          "type": "uint256"
        },
        {
          "internalType": "uint256",
          "name": "_organization",
          "type": "uint256"
        },
        {
          "internalType": "uint256",
          "name": "_role",
          "type": "uint256"
        }
      ],
      "name": "createReviewer",
      "outputs": [],
      "stateMutability": "nonpayable",
      "type": "function"
    },
    {
      "inputs": [
        {
          "internalType": "address",
          "name": "_addr",
          "type": "address"
        }
      ],
      "name": "getReviewer",
      "outputs": [
        {
          "internalType": "address",
          "name": "",
          "type": "address"
        },
        {
          "internalType": "string",
          "name": "",
          "type": "string"
        },
        {
          "internalType": "uint256",
          "name": "",
          "type": "uint256"
        },
        {
          "internalType": "uint256",
          "name": "",
          "type": "uint256"
        },
        {
          "internalType": "uint256",
          "name": "",
          "type": "uint256"
        }
      ],
      "stateMutability": "view",
      "type": "function"
    },
    {
      "inputs": [],
      "name": "getAllReviewers",
      "outputs": [
        {
          "components": [
            {
              "internalType": "address",
              "name": "reviewer_address",
              "type": "address"
            },
            {
              "internalType": "string",
              "name": "username",
              "type": "string"
            },
            {
              "internalType": "uint256",
              "name": "tenure",
              "type": "uint256"
            },
            {
              "internalType": "uint256",
              "name": "organization",
              "type": "uint256"
            },
            {
              "internalType": "uint256",
              "name": "role",
              "type": "uint256"
            },
            {
              "internalType": "uint256",
              "name": "frequency",
              "type": "uint256"
            },
            {
              "internalType": "uint256",
              "name": "accuracy",
              "type": "uint256"
            }
          ],
          "internalType": "struct Veritru.Reviewer[]",
          "name": "",
          "type": "tuple[]"
        }
      ],
      "stateMutability": "view",
      "type": "function"
    },
    {
      "inputs": [
        {
          "internalType": "address",
          "name": "_uploader",
          "type": "address"
        },
        {
          "internalType": "string",
          "name": "_ipfs_cid",
          "type": "string"
        },
        {
          "internalType": "string",
          "name": "_headline",
          "type": "string"
        },
        {
          "internalType": "string",
          "name": "_category",
          "type": "string"
        }
      ],
      "name": "createArticle",
      "outputs": [],
      "stateMutability": "nonpayable",
      "type": "function"
    },
    {
      "inputs": [
        {
          "internalType": "string",
          "name": "_ipfs_cid",
          "type": "string"
        }
      ],
      "name": "getArticle",
      "outputs": [
        {
          "internalType": "address",
          "name": "",
          "type": "address"
        },
        {
          "internalType": "string",
          "name": "",
          "type": "string"
        },
        {
          "internalType": "string",
          "name": "",
          "type": "string"
        },
        {
          "internalType": "string",
          "name": "",
          "type": "string"
        }
      ],
      "stateMutability": "view",
      "type": "function"
    },
    {
      "inputs": [],
      "name": "getAllArticles",
      "outputs": [
        {
          "components": [
            {
              "internalType": "address",
              "name": "uploader",
              "type": "address"
            },
            {
              "internalType": "string",
              "name": "ipfs_cid",
              "type": "string"
            },
            {
              "internalType": "string",
              "name": "headline",
              "type": "string"
            },
            {
              "internalType": "string",
              "name": "category",
              "type": "string"
            },
            {
              "internalType": "string",
              "name": "result",
              "type": "string"
            }
          ],
          "internalType": "struct Veritru.Article[]",
          "name": "",
          "type": "tuple[]"
        }
      ],
      "stateMutability": "view",
      "type": "function"
    },
    {
      "inputs": [
        {
          "internalType": "address",
          "name": "_voter",
          "type": "address"
        },
        {
          "internalType": "string",
          "name": "_ipfs_cid",
          "type": "string"
        },
        {
          "internalType": "int256",
          "name": "_vote",
          "type": "int256"
        },
        {
          "internalType": "int256",
          "name": "_confidence",
          "type": "int256"
        }
      ],
      "name": "setVote",
      "outputs": [],
      "stateMutability": "nonpayable",
      "type": "function"
    },
    {
      "inputs": [
        {
          "internalType": "address",
          "name": "_addr",
          "type": "address"
        }
      ],
      "name": "getVote",
      "outputs": [
        {
          "internalType": "address",
          "name": "",
          "type": "address"
        },
        {
          "internalType": "bool",
          "name": "",
          "type": "bool"
        },
        {
          "internalType": "string",
          "name": "",
          "type": "string"
        },
        {
          "internalType": "int256",
          "name": "",
          "type": "int256"
        },
        {
          "internalType": "int256",
          "name": "",
          "type": "int256"
        }
      ],
      "stateMutability": "view",
      "type": "function"
    },
    {
      "inputs": [],
      "name": "getAllVotes",
      "outputs": [
        {
          "components": [
            {
              "internalType": "address",
              "name": "voter",
              "type": "address"
            },
            {
              "internalType": "bool",
              "name": "voted",
              "type": "bool"
            },
            {
              "internalType": "string",
              "name": "ipfs_cid",
              "type": "string"
            },
            {
              "internalType": "int256",
              "name": "vote",
              "type": "int256"
            },
            {
              "internalType": "int256",
              "name": "confidence",
              "type": "int256"
            }
          ],
          "internalType": "struct Veritru.Vote[]",
          "name": "",
          "type": "tuple[]"
        }
      ],
      "stateMutability": "view",
      "type": "function"
    },
    {
      "inputs": [],
      "name": "getSumVotes",
      "outputs": [
        {
          "internalType": "int256",
          "name": "",
          "type": "int256"
        }
      ],
      "stateMutability": "view",
      "type": "function"
    },
    {
      "inputs": [
        {
          "internalType": "address",
          "name": "_reviewer_address",
          "type": "address"
        },
        {
          "internalType": "uint256",
          "name": "_frequency",
          "type": "uint256"
        }
      ],
      "name": "setFrequency",
      "outputs": [],
      "stateMutability": "nonpayable",
      "type": "function"
    },
    {
      "inputs": [
        {
          "internalType": "address",
          "name": "_addr",
          "type": "address"
        }
      ],
      "name": "getFrequency",
      "outputs": [
        {
          "internalType": "uint256",
          "name": "",
          "type": "uint256"
        }
      ],
      "stateMutability": "view",
      "type": "function"
    },
    {
      "inputs": [
        {
          "internalType": "address",
          "name": "_reviewer_address",
          "type": "address"
        },
        {
          "internalType": "uint256",
          "name": "_accuracy",
          "type": "uint256"
        }
      ],
      "name": "setAccuracy",
      "outputs": [],
      "stateMutability": "nonpayable",
      "type": "function"
    },
    {
      "inputs": [
        {
          "internalType": "address",
          "name": "_addr",
          "type": "address"
        }
      ],
      "name": "getAccuracy",
      "outputs": [
        {
          "internalType": "uint256",
          "name": "",
          "type": "uint256"
        }
      ],
      "stateMutability": "view",
      "type": "function"
    },
    {
      "inputs": [
        {
          "internalType": "address",
          "name": "_addr",
          "type": "address"
        }
      ],
      "name": "calcExpScore",
      "outputs": [
        {
          "internalType": "uint256",
          "name": "",
          "type": "uint256"
        }
      ],
      "stateMutability": "view",
      "type": "function"
    },
    {
      "inputs": [
        {
          "internalType": "address",
          "name": "_addr",
          "type": "address"
        }
      ],
      "name": "calcReputationScore",
      "outputs": [
        {
          "internalType": "uint256",
          "name": "",
          "type": "uint256"
        }
      ],
      "stateMutability": "view",
      "type": "function"
    },
    {
      "inputs": [
        {
          "internalType": "string",
          "name": "_ipfs_cid",
          "type": "string"
        },
        {
          "internalType": "string",
          "name": "_result",
          "type": "string"
        }
      ],
      "name": "setResult",
      "outputs": [],
      "stateMutability": "nonpayable",
      "type": "function"
    },
    {
      "inputs": [
        {
          "internalType": "string",
          "name": "_ipfs_cid",
          "type": "string"
        }
      ],
      "name": "getResult",
      "outputs": [
        {
          "internalType": "string",
          "name": "",
          "type": "string"
        }
      ],
      "stateMutability": "view",
      "type": "function"
    }
  ],
  "bytecode": "0x608060405234801561001057600080fd5b50613a21806100206000396000f3fe608060405234801561001057600080fd5b50600436106101735760003560e01c8063a4666665116100de578063d8bff5a511610097578063f3035dd911610071578063f3035dd9146104e1578063f70e040f146104ff578063f7cbb1b21461051b578063fc0f02f41461055157610173565b8063d8bff5a514610461578063e74a283514610495578063ed5a7e2c146104c557610173565b8063a46666651461038c578063b1a74f5d146103bf578063b44d310b146103db578063c3d96dd2146103f9578063d517712614610429578063d8795cc51461044557610173565b8063783df30a11610130578063783df30a146102725780637c702b8d146102a25780637fa0f9d7146102d6578063851b6ef2146103065780638979d901146103245780638d337b811461035857610173565b80630d15fd77146101785780633d912e7c14610196578063498cc70d146101c6578063546d2955146101f657806354fe15f21461022657806363c7669a14610256575b600080fd5b61018061056f565b60405161018d919061276b565b60405180910390f35b6101b060048036038101906101ab91906127f8565b610575565b6040516101bd919061283e565b60405180910390f35b6101e060048036038101906101db919061299f565b610708565b6040516101ed9190612a67565b60405180910390f35b610210600480360381019061020b91906127f8565b6109e2565b60405161021d919061283e565b60405180910390f35b610240600480360381019061023b9190612ab5565b610b66565b60405161024d9190612af1565b60405180910390f35b610270600480360381019061026b9190612b0c565b610ba5565b005b61028c600480360381019061028791906127f8565b610bde565b604051610299919061283e565b60405180910390f35b6102bc60048036038101906102b7919061299f565b610d53565b6040516102cd959493929190612b84565b60405180910390f35b6102f060048036038101906102eb91906127f8565b610fdf565b6040516102fd919061283e565b60405180910390f35b61030e611154565b60405161031b9190612dae565b60405180910390f35b61033e600480360381019061033991906127f8565b61139b565b60405161034f959493929190612dd0565b60405180910390f35b610372600480360381019061036d91906127f8565b611537565b604051610383959493929190612e39565b60405180910390f35b6103a660048036038101906103a1919061299f565b6116d1565b6040516103b69493929190612e93565b60405180910390f35b6103d960048036038101906103d49190612eed565b6119c7565b005b6103e3611a9e565b6040516103f091906130f5565b60405180910390f35b610413600480360381019061040e9190612ab5565b611e2a565b6040516104209190612af1565b60405180910390f35b610443600480360381019061043e9190613143565b611e69565b005b61045f600480360381019061045a91906131c6565b611fbe565b005b61047b600480360381019061047691906127f8565b6120db565b60405161048c959493929190612e39565b60405180910390f35b6104af60048036038101906104aa9190612ab5565b6121c6565b6040516104bc9190612a67565b60405180910390f35b6104df60048036038101906104da919061325d565b612272565b005b6104e96122d4565b6040516104f6919061276b565b60405180910390f35b6105196004803603810190610514919061325d565b6122de565b005b610535600480360381019061053091906127f8565b612340565b604051610548979695949392919061329d565b60405180910390f35b61055961242a565b6040516105669190613480565b60405180910390f35b60065481565b6000806000808473ffffffffffffffffffffffffffffffffffffffff1673ffffffffffffffffffffffffffffffffffffffff1681526020019081526020016000206040518060e00160405290816000820160009054906101000a900473ffffffffffffffffffffffffffffffffffffffff1673ffffffffffffffffffffffffffffffffffffffff1673ffffffffffffffffffffffffffffffffffffffff168152602001600182018054610627906134d1565b80601f0160208091040260200160405190810160405280929190818152602001828054610653906134d1565b80156106a05780601f10610675576101008083540402835291602001916106a0565b820191906000526020600020905b81548152906001019060200180831161068357829003601f168201915b505050505081526020016002820154815260200160038201548152602001600482015481526020016005820154815260200160068201548152505090508060800151816060015182604001516106f69190613531565b6107009190613531565b915050919050565b6060600060018360405161071c91906135a1565b90815260200160405180910390206040518060a00160405290816000820160009054906101000a900473ffffffffffffffffffffffffffffffffffffffff1673ffffffffffffffffffffffffffffffffffffffff1673ffffffffffffffffffffffffffffffffffffffff16815260200160018201805461079b906134d1565b80601f01602080910402602001604051908101604052809291908181526020018280546107c7906134d1565b80156108145780601f106107e957610100808354040283529160200191610814565b820191906000526020600020905b8154815290600101906020018083116107f757829003601f168201915b5050505050815260200160028201805461082d906134d1565b80601f0160208091040260200160405190810160405280929190818152602001828054610859906134d1565b80156108a65780601f1061087b576101008083540402835291602001916108a6565b820191906000526020600020905b81548152906001019060200180831161088957829003601f168201915b505050505081526020016003820180546108bf906134d1565b80601f01602080910402602001604051908101604052809291908181526020018280546108eb906134d1565b80156109385780601f1061090d57610100808354040283529160200191610938565b820191906000526020600020905b81548152906001019060200180831161091b57829003601f168201915b50505050508152602001600482018054610951906134d1565b80601f016020809104026020016040519081016040528092919081815260200182805461097d906134d1565b80156109ca5780601f1061099f576101008083540402835291602001916109ca565b820191906000526020600020905b8154815290600101906020018083116109ad57829003601f168201915b50505050508152505090508060800151915050919050565b6000806000808473ffffffffffffffffffffffffffffffffffffffff1673ffffffffffffffffffffffffffffffffffffffff1681526020019081526020016000206040518060e00160405290816000820160009054906101000a900473ffffffffffffffffffffffffffffffffffffffff1673ffffffffffffffffffffffffffffffffffffffff1673ffffffffffffffffffffffffffffffffffffffff168152602001600182018054610a94906134d1565b80601f0160208091040260200160405190810160405280929190818152602001828054610ac0906134d1565b8015610b0d5780601f10610ae257610100808354040283529160200191610b0d565b820191906000526020600020905b815481529060010190602001808311610af057829003601f168201915b505050505081526020016002820154815260200160038201548152602001600482015481526020016005820154815260200160068201548152505090508060a001518160c00151610b5e91906135e7565b915050919050565b60058181548110610b7657600080fd5b906000526020600020016000915054906101000a900473ffffffffffffffffffffffffffffffffffffffff1681565b6000600183604051610bb791906135a1565b9081526020016040518091039020905081816004019081610bd891906137c4565b50505050565b6000806000808473ffffffffffffffffffffffffffffffffffffffff1673ffffffffffffffffffffffffffffffffffffffff1681526020019081526020016000206040518060e00160405290816000820160009054906101000a900473ffffffffffffffffffffffffffffffffffffffff1673ffffffffffffffffffffffffffffffffffffffff1673ffffffffffffffffffffffffffffffffffffffff168152602001600182018054610c90906134d1565b80601f0160208091040260200160405190810160405280929190818152602001828054610cbc906134d1565b8015610d095780601f10610cde57610100808354040283529160200191610d09565b820191906000526020600020905b815481529060010190602001808311610cec57829003601f168201915b505050505081526020016002820154815260200160038201548152602001600482015481526020016005820154815260200160068201548152505090508060c00151915050919050565b6001818051602081018201805184825260208301602085012081835280955050505050506000915090508060000160009054906101000a900473ffffffffffffffffffffffffffffffffffffffff1690806001018054610db2906134d1565b80601f0160208091040260200160405190810160405280929190818152602001828054610dde906134d1565b8015610e2b5780601f10610e0057610100808354040283529160200191610e2b565b820191906000526020600020905b815481529060010190602001808311610e0e57829003601f168201915b505050505090806002018054610e40906134d1565b80601f0160208091040260200160405190810160405280929190818152602001828054610e6c906134d1565b8015610eb95780601f10610e8e57610100808354040283529160200191610eb9565b820191906000526020600020905b815481529060010190602001808311610e9c57829003601f168201915b505050505090806003018054610ece906134d1565b80601f0160208091040260200160405190810160405280929190818152602001828054610efa906134d1565b8015610f475780601f10610f1c57610100808354040283529160200191610f47565b820191906000526020600020905b815481529060010190602001808311610f2a57829003601f168201915b505050505090806004018054610f5c906134d1565b80601f0160208091040260200160405190810160405280929190818152602001828054610f88906134d1565b8015610fd55780601f10610faa57610100808354040283529160200191610fd5565b820191906000526020600020905b815481529060010190602001808311610fb857829003601f168201915b5050505050905085565b6000806000808473ffffffffffffffffffffffffffffffffffffffff1673ffffffffffffffffffffffffffffffffffffffff1681526020019081526020016000206040518060e00160405290816000820160009054906101000a900473ffffffffffffffffffffffffffffffffffffffff1673ffffffffffffffffffffffffffffffffffffffff1673ffffffffffffffffffffffffffffffffffffffff168152602001600182018054611091906134d1565b80601f01602080910402602001604051908101604052809291908181526020018280546110bd906134d1565b801561110a5780601f106110df5761010080835404028352916020019161110a565b820191906000526020600020905b8154815290600101906020018083116110ed57829003601f168201915b505050505081526020016002820154815260200160038201548152602001600482015481526020016005820154815260200160068201548152505090508060a00151915050919050565b6060600060058054905067ffffffffffffffff81111561117757611176612874565b5b6040519080825280602002602001820160405280156111b057816020015b61119d612673565b8152602001906001900390816111955790505b50905060005b6005805490508110156113935760026000600583815481106111db576111da613896565b5b9060005260206000200160009054906101000a900473ffffffffffffffffffffffffffffffffffffffff1673ffffffffffffffffffffffffffffffffffffffff1673ffffffffffffffffffffffffffffffffffffffff1681526020019081526020016000206040518060a00160405290816000820160009054906101000a900473ffffffffffffffffffffffffffffffffffffffff1673ffffffffffffffffffffffffffffffffffffffff1673ffffffffffffffffffffffffffffffffffffffff1681526020016000820160149054906101000a900460ff161515151581526020016001820180546112cc906134d1565b80601f01602080910402602001604051908101604052809291908181526020018280546112f8906134d1565b80156113455780601f1061131a57610100808354040283529160200191611345565b820191906000526020600020905b81548152906001019060200180831161132857829003601f168201915b505050505081526020016002820154815260200160038201548152505082828151811061137557611374613896565b5b6020026020010181905250808061138b906138c5565b9150506111b6565b508091505090565b600060606000806000806000808873ffffffffffffffffffffffffffffffffffffffff1673ffffffffffffffffffffffffffffffffffffffff1681526020019081526020016000206040518060e00160405290816000820160009054906101000a900473ffffffffffffffffffffffffffffffffffffffff1673ffffffffffffffffffffffffffffffffffffffff1673ffffffffffffffffffffffffffffffffffffffff168152602001600182018054611454906134d1565b80601f0160208091040260200160405190810160405280929190818152602001828054611480906134d1565b80156114cd5780601f106114a2576101008083540402835291602001916114cd565b820191906000526020600020905b8154815290600101906020018083116114b057829003601f168201915b5050505050815260200160028201548152602001600382015481526020016004820154815260200160058201548152602001600682015481525050905080600001518160200151826040015183606001518460800151955095509550955095505091939590929450565b60008060606000806000600260008873ffffffffffffffffffffffffffffffffffffffff1673ffffffffffffffffffffffffffffffffffffffff1681526020019081526020016000206040518060a00160405290816000820160009054906101000a900473ffffffffffffffffffffffffffffffffffffffff1673ffffffffffffffffffffffffffffffffffffffff1673ffffffffffffffffffffffffffffffffffffffff1681526020016000820160149054906101000a900460ff1615151515815260200160018201805461160c906134d1565b80601f0160208091040260200160405190810160405280929190818152602001828054611638906134d1565b80156116855780601f1061165a57610100808354040283529160200191611685565b820191906000526020600020905b81548152906001019060200180831161166857829003601f168201915b5050505050815260200160028201548152602001600382015481525050905080600001518160200151826040015183606001518460800151955095509550955095505091939590929450565b6000606080606060006001866040516116ea91906135a1565b90815260200160405180910390206040518060a00160405290816000820160009054906101000a900473ffffffffffffffffffffffffffffffffffffffff1673ffffffffffffffffffffffffffffffffffffffff1673ffffffffffffffffffffffffffffffffffffffff168152602001600182018054611769906134d1565b80601f0160208091040260200160405190810160405280929190818152602001828054611795906134d1565b80156117e25780601f106117b7576101008083540402835291602001916117e2565b820191906000526020600020905b8154815290600101906020018083116117c557829003601f168201915b505050505081526020016002820180546117fb906134d1565b80601f0160208091040260200160405190810160405280929190818152602001828054611827906134d1565b80156118745780601f1061184957610100808354040283529160200191611874565b820191906000526020600020905b81548152906001019060200180831161185757829003601f168201915b5050505050815260200160038201805461188d906134d1565b80601f01602080910402602001604051908101604052809291908181526020018280546118b9906134d1565b80156119065780601f106118db57610100808354040283529160200191611906565b820191906000526020600020905b8154815290600101906020018083116118e957829003601f168201915b5050505050815260200160048201805461191f906134d1565b80601f016020809104026020016040519081016040528092919081815260200182805461194b906134d1565b80156119985780601f1061196d57610100808354040283529160200191611998565b820191906000526020600020905b81548152906001019060200180831161197b57829003601f168201915b505050505081525050905080600001518160200151826040015183606001519450945094509450509193509193565b60006001846040516119d991906135a1565b90815260200160405180910390209050600484908060018154018082558091505060019003906000526020600020016000909190919091509081611a1d91906137c4565b50848160000160006101000a81548173ffffffffffffffffffffffffffffffffffffffff021916908373ffffffffffffffffffffffffffffffffffffffff16021790555083816001019081611a7291906137c4565b5082816002019081611a8491906137c4565b5081816003019081611a9691906137c4565b505050505050565b6060600060048054905067ffffffffffffffff811115611ac157611ac0612874565b5b604051908082528060200260200182016040528015611afa57816020015b611ae76126ba565b815260200190600190039081611adf5790505b50905060005b600480549050811015611e2257600160048281548110611b2357611b22613896565b5b90600052602060002001604051611b3a9190613990565b90815260200160405180910390206040518060a00160405290816000820160009054906101000a900473ffffffffffffffffffffffffffffffffffffffff1673ffffffffffffffffffffffffffffffffffffffff1673ffffffffffffffffffffffffffffffffffffffff168152602001600182018054611bb9906134d1565b80601f0160208091040260200160405190810160405280929190818152602001828054611be5906134d1565b8015611c325780601f10611c0757610100808354040283529160200191611c32565b820191906000526020600020905b815481529060010190602001808311611c1557829003601f168201915b50505050508152602001600282018054611c4b906134d1565b80601f0160208091040260200160405190810160405280929190818152602001828054611c77906134d1565b8015611cc45780601f10611c9957610100808354040283529160200191611cc4565b820191906000526020600020905b815481529060010190602001808311611ca757829003601f168201915b50505050508152602001600382018054611cdd906134d1565b80601f0160208091040260200160405190810160405280929190818152602001828054611d09906134d1565b8015611d565780601f10611d2b57610100808354040283529160200191611d56565b820191906000526020600020905b815481529060010190602001808311611d3957829003601f168201915b50505050508152602001600482018054611d6f906134d1565b80601f0160208091040260200160405190810160405280929190818152602001828054611d9b906134d1565b8015611de85780601f10611dbd57610100808354040283529160200191611de8565b820191906000526020600020905b815481529060010190602001808311611dcb57829003601f168201915b505050505081525050828281518110611e0457611e03613896565b5b60200260200101819052508080611e1a906138c5565b915050611b00565b508091505090565b60038181548110611e3a57600080fd5b906000526020600020016000915054906101000a900473ffffffffffffffffffffffffffffffffffffffff1681565b6000600260008673ffffffffffffffffffffffffffffffffffffffff1673ffffffffffffffffffffffffffffffffffffffff16815260200190815260200160002090506005859080600181540180825580915050600190039060005260206000200160009091909190916101000a81548173ffffffffffffffffffffffffffffffffffffffff021916908373ffffffffffffffffffffffffffffffffffffffff160217905550848160000160006101000a81548173ffffffffffffffffffffffffffffffffffffffff021916908373ffffffffffffffffffffffffffffffffffffffff16021790555060018160000160146101000a81548160ff02191690831515021790555083816001019081611f8091906137c4565b508281600201819055508181600301819055508260066000828254611fa591906139a7565b92505081905550611fb78560016122de565b5050505050565b60008060008773ffffffffffffffffffffffffffffffffffffffff1673ffffffffffffffffffffffffffffffffffffffff16815260200190815260200160002090506003869080600181540180825580915050600190039060005260206000200160009091909190916101000a81548173ffffffffffffffffffffffffffffffffffffffff021916908373ffffffffffffffffffffffffffffffffffffffff160217905550858160000160006101000a81548173ffffffffffffffffffffffffffffffffffffffff021916908373ffffffffffffffffffffffffffffffffffffffff160217905550848160010190816120b791906137c4565b50838160020181905550828160030181905550818160040181905550505050505050565b60026020528060005260406000206000915090508060000160009054906101000a900473ffffffffffffffffffffffffffffffffffffffff16908060000160149054906101000a900460ff1690806001018054612137906134d1565b80601f0160208091040260200160405190810160405280929190818152602001828054612163906134d1565b80156121b05780601f10612185576101008083540402835291602001916121b0565b820191906000526020600020905b81548152906001019060200180831161219357829003601f168201915b5050505050908060020154908060030154905085565b600481815481106121d657600080fd5b9060005260206000200160009150905080546121f1906134d1565b80601f016020809104026020016040519081016040528092919081815260200182805461221d906134d1565b801561226a5780601f1061223f5761010080835404028352916020019161226a565b820191906000526020600020905b81548152906001019060200180831161224d57829003601f168201915b505050505081565b60008060008473ffffffffffffffffffffffffffffffffffffffff1673ffffffffffffffffffffffffffffffffffffffff1681526020019081526020016000209050818160060160008282546122c89190613531565b92505081905550505050565b6000600654905090565b60008060008473ffffffffffffffffffffffffffffffffffffffff1673ffffffffffffffffffffffffffffffffffffffff1681526020019081526020016000209050818160050160008282546123349190613531565b92505081905550505050565b60006020528060005260406000206000915090508060000160009054906101000a900473ffffffffffffffffffffffffffffffffffffffff1690806001018054612389906134d1565b80601f01602080910402602001604051908101604052809291908181526020018280546123b5906134d1565b80156124025780601f106123d757610100808354040283529160200191612402565b820191906000526020600020905b8154815290600101906020018083116123e557829003601f168201915b5050505050908060020154908060030154908060040154908060050154908060060154905087565b6060600060038054905067ffffffffffffffff81111561244d5761244c612874565b5b60405190808252806020026020018201604052801561248657816020015b6124736126ff565b81526020019060019003908161246b5790505b50905060005b60038054905081101561266b57600080600383815481106124b0576124af613896565b5b9060005260206000200160009054906101000a900473ffffffffffffffffffffffffffffffffffffffff1673ffffffffffffffffffffffffffffffffffffffff1673ffffffffffffffffffffffffffffffffffffffff1681526020019081526020016000206040518060e00160405290816000820160009054906101000a900473ffffffffffffffffffffffffffffffffffffffff1673ffffffffffffffffffffffffffffffffffffffff1673ffffffffffffffffffffffffffffffffffffffff168152602001600182018054612586906134d1565b80601f01602080910402602001604051908101604052809291908181526020018280546125b2906134d1565b80156125ff5780601f106125d4576101008083540402835291602001916125ff565b820191906000526020600020905b8154815290600101906020018083116125e257829003601f168201915b505050505081526020016002820154815260200160038201548152602001600482015481526020016005820154815260200160068201548152505082828151811061264d5761264c613896565b5b60200260200101819052508080612663906138c5565b91505061248c565b508091505090565b6040518060a00160405280600073ffffffffffffffffffffffffffffffffffffffff1681526020016000151581526020016060815260200160008152602001600081525090565b6040518060a00160405280600073ffffffffffffffffffffffffffffffffffffffff168152602001606081526020016060815260200160608152602001606081525090565b6040518060e00160405280600073ffffffffffffffffffffffffffffffffffffffff1681526020016060815260200160008152602001600081526020016000815260200160008152602001600081525090565b6000819050919050565b61276581612752565b82525050565b6000602082019050612780600083018461275c565b92915050565b6000604051905090565b600080fd5b600080fd5b600073ffffffffffffffffffffffffffffffffffffffff82169050919050565b60006127c58261279a565b9050919050565b6127d5816127ba565b81146127e057600080fd5b50565b6000813590506127f2816127cc565b92915050565b60006020828403121561280e5761280d612790565b5b600061281c848285016127e3565b91505092915050565b6000819050919050565b61283881612825565b82525050565b6000602082019050612853600083018461282f565b92915050565b600080fd5b600080fd5b6000601f19601f8301169050919050565b7f4e487b7100000000000000000000000000000000000000000000000000000000600052604160045260246000fd5b6128ac82612863565b810181811067ffffffffffffffff821117156128cb576128ca612874565b5b80604052505050565b60006128de612786565b90506128ea82826128a3565b919050565b600067ffffffffffffffff82111561290a57612909612874565b5b61291382612863565b9050602081019050919050565b82818337600083830152505050565b600061294261293d846128ef565b6128d4565b90508281526020810184848401111561295e5761295d61285e565b5b612969848285612920565b509392505050565b600082601f83011261298657612985612859565b5b813561299684826020860161292f565b91505092915050565b6000602082840312156129b5576129b4612790565b5b600082013567ffffffffffffffff8111156129d3576129d2612795565b5b6129df84828501612971565b91505092915050565b600081519050919050565b600082825260208201905092915050565b60005b83811015612a22578082015181840152602081019050612a07565b60008484015250505050565b6000612a39826129e8565b612a4381856129f3565b9350612a53818560208601612a04565b612a5c81612863565b840191505092915050565b60006020820190508181036000830152612a818184612a2e565b905092915050565b612a9281612825565b8114612a9d57600080fd5b50565b600081359050612aaf81612a89565b92915050565b600060208284031215612acb57612aca612790565b5b6000612ad984828501612aa0565b91505092915050565b612aeb816127ba565b82525050565b6000602082019050612b066000830184612ae2565b92915050565b60008060408385031215612b2357612b22612790565b5b600083013567ffffffffffffffff811115612b4157612b40612795565b5b612b4d85828601612971565b925050602083013567ffffffffffffffff811115612b6e57612b6d612795565b5b612b7a85828601612971565b9150509250929050565b600060a082019050612b996000830188612ae2565b8181036020830152612bab8187612a2e565b90508181036040830152612bbf8186612a2e565b90508181036060830152612bd38185612a2e565b90508181036080830152612be78184612a2e565b90509695505050505050565b600081519050919050565b600082825260208201905092915050565b6000819050602082019050919050565b612c28816127ba565b82525050565b60008115159050919050565b612c4381612c2e565b82525050565b600082825260208201905092915050565b6000612c65826129e8565b612c6f8185612c49565b9350612c7f818560208601612a04565b612c8881612863565b840191505092915050565b612c9c81612752565b82525050565b600060a083016000830151612cba6000860182612c1f565b506020830151612ccd6020860182612c3a565b5060408301518482036040860152612ce58282612c5a565b9150506060830151612cfa6060860182612c93565b506080830151612d0d6080860182612c93565b508091505092915050565b6000612d248383612ca2565b905092915050565b6000602082019050919050565b6000612d4482612bf3565b612d4e8185612bfe565b935083602082028501612d6085612c0f565b8060005b85811015612d9c5784840389528151612d7d8582612d18565b9450612d8883612d2c565b925060208a01995050600181019050612d64565b50829750879550505050505092915050565b60006020820190508181036000830152612dc88184612d39565b905092915050565b600060a082019050612de56000830188612ae2565b8181036020830152612df78187612a2e565b9050612e06604083018661282f565b612e13606083018561282f565b612e20608083018461282f565b9695505050505050565b612e3381612c2e565b82525050565b600060a082019050612e4e6000830188612ae2565b612e5b6020830187612e2a565b8181036040830152612e6d8186612a2e565b9050612e7c606083018561275c565b612e89608083018461275c565b9695505050505050565b6000608082019050612ea86000830187612ae2565b8181036020830152612eba8186612a2e565b90508181036040830152612ece8185612a2e565b90508181036060830152612ee28184612a2e565b905095945050505050565b60008060008060808587031215612f0757612f06612790565b5b6000612f15878288016127e3565b945050602085013567ffffffffffffffff811115612f3657612f35612795565b5b612f4287828801612971565b935050604085013567ffffffffffffffff811115612f6357612f62612795565b5b612f6f87828801612971565b925050606085013567ffffffffffffffff811115612f9057612f8f612795565b5b612f9c87828801612971565b91505092959194509250565b600081519050919050565b600082825260208201905092915050565b6000819050602082019050919050565b600060a083016000830151612fec6000860182612c1f565b50602083015184820360208601526130048282612c5a565b9150506040830151848203604086015261301e8282612c5a565b915050606083015184820360608601526130388282612c5a565b915050608083015184820360808601526130528282612c5a565b9150508091505092915050565b600061306b8383612fd4565b905092915050565b6000602082019050919050565b600061308b82612fa8565b6130958185612fb3565b9350836020820285016130a785612fc4565b8060005b858110156130e357848403895281516130c4858261305f565b94506130cf83613073565b925060208a019950506001810190506130ab565b50829750879550505050505092915050565b6000602082019050818103600083015261310f8184613080565b905092915050565b61312081612752565b811461312b57600080fd5b50565b60008135905061313d81613117565b92915050565b6000806000806080858703121561315d5761315c612790565b5b600061316b878288016127e3565b945050602085013567ffffffffffffffff81111561318c5761318b612795565b5b61319887828801612971565b93505060406131a98782880161312e565b92505060606131ba8782880161312e565b91505092959194509250565b600080600080600060a086880312156131e2576131e1612790565b5b60006131f0888289016127e3565b955050602086013567ffffffffffffffff81111561321157613210612795565b5b61321d88828901612971565b945050604061322e88828901612aa0565b935050606061323f88828901612aa0565b925050608061325088828901612aa0565b9150509295509295909350565b6000806040838503121561327457613273612790565b5b6000613282858286016127e3565b925050602061329385828601612aa0565b9150509250929050565b600060e0820190506132b2600083018a612ae2565b81810360208301526132c48189612a2e565b90506132d3604083018861282f565b6132e0606083018761282f565b6132ed608083018661282f565b6132fa60a083018561282f565b61330760c083018461282f565b98975050505050505050565b600081519050919050565b600082825260208201905092915050565b6000819050602082019050919050565b61334881612825565b82525050565b600060e0830160008301516133666000860182612c1f565b506020830151848203602086015261337e8282612c5a565b9150506040830151613393604086018261333f565b5060608301516133a6606086018261333f565b5060808301516133b9608086018261333f565b5060a08301516133cc60a086018261333f565b5060c08301516133df60c086018261333f565b508091505092915050565b60006133f6838361334e565b905092915050565b6000602082019050919050565b600061341682613313565b613420818561331e565b9350836020820285016134328561332f565b8060005b8581101561346e578484038952815161344f85826133ea565b945061345a836133fe565b925060208a01995050600181019050613436565b50829750879550505050505092915050565b6000602082019050818103600083015261349a818461340b565b905092915050565b7f4e487b7100000000000000000000000000000000000000000000000000000000600052602260045260246000fd5b600060028204905060018216806134e957607f821691505b6020821081036134fc576134fb6134a2565b5b50919050565b7f4e487b7100000000000000000000000000000000000000000000000000000000600052601160045260246000fd5b600061353c82612825565b915061354783612825565b925082820190508082111561355f5761355e613502565b5b92915050565b600081905092915050565b600061357b826129e8565b6135858185613565565b9350613595818560208601612a04565b80840191505092915050565b60006135ad8284613570565b915081905092915050565b7f4e487b7100000000000000000000000000000000000000000000000000000000600052601260045260246000fd5b60006135f282612825565b91506135fd83612825565b92508261360d5761360c6135b8565b5b828204905092915050565b60008190508160005260206000209050919050565b60006020601f8301049050919050565b600082821b905092915050565b60006008830261367a7fffffffffffffffffffffffffffffffffffffffffffffffffffffffffffffffff8261363d565b613684868361363d565b95508019841693508086168417925050509392505050565b6000819050919050565b60006136c16136bc6136b784612825565b61369c565b612825565b9050919050565b6000819050919050565b6136db836136a6565b6136ef6136e7826136c8565b84845461364a565b825550505050565b600090565b6137046136f7565b61370f8184846136d2565b505050565b5b81811015613733576137286000826136fc565b600181019050613715565b5050565b601f8211156137785761374981613618565b6137528461362d565b81016020851015613761578190505b61377561376d8561362d565b830182613714565b50505b505050565b600082821c905092915050565b600061379b6000198460080261377d565b1980831691505092915050565b60006137b4838361378a565b9150826002028217905092915050565b6137cd826129e8565b67ffffffffffffffff8111156137e6576137e5612874565b5b6137f082546134d1565b6137fb828285613737565b600060209050601f83116001811461382e576000841561381c578287015190505b61382685826137a8565b86555061388e565b601f19841661383c86613618565b60005b828110156138645784890151825560018201915060208501945060208101905061383f565b86831015613881578489015161387d601f89168261378a565b8355505b6001600288020188555050505b505050505050565b7f4e487b7100000000000000000000000000000000000000000000000000000000600052603260045260246000fd5b60006138d082612825565b91507fffffffffffffffffffffffffffffffffffffffffffffffffffffffffffffffff820361390257613901613502565b5b600182019050919050565b6000815461391a816134d1565b6139248186613565565b9450600182166000811461393f576001811461395457613987565b60ff1983168652811515820286019350613987565b61395d85613618565b60005b8381101561397f57815481890152600182019150602081019050613960565b838801955050505b50505092915050565b600061399c828461390d565b915081905092915050565b60006139b282612752565b91506139bd83612752565b9250828201905082811215600083121683821260008412151617156139e5576139e4613502565b5b9291505056fea2646970667358221220d27bc5a30cc4445cc85cb3c302aead1777dbd1b98f21bbafdd249a3d0f7d42dd64736f6c63430008130033",
  "immutableReferences": {},
  "source": "// SPDX-License-Identifier: MIT\r\n\r\npragma solidity >= 0.8.0 < 0.9.0;\r\n\r\ncontract Veritru {\r\n    struct Reviewer {\r\n        address reviewer_address;\r\n        string username;\r\n        uint tenure;\r\n        uint organization;\r\n        uint role;\r\n        uint frequency;\r\n        uint accuracy;\r\n    }\r\n\r\n    struct Article {\r\n        address uploader;\r\n        string ipfs_cid;\r\n        string headline;\r\n        string category;\r\n        string result;\r\n    }\r\n\r\n    struct Vote {\r\n        address voter;\r\n        bool voted;\r\n        string ipfs_cid;\r\n        int vote;\r\n        int confidence;\r\n    }\r\n\r\n    mapping(address => Reviewer) public reviewers;\r\n    mapping(string => Article) public articles;\r\n    mapping(address => Vote) public votes;\r\n\r\n    // // // // // // // // // // // //\r\n    // //      FOR REVIEWER      // //\r\n    // // // // // // // // // // //\r\n    address[] public reviewerMappingKeys;\r\n\r\n    function createReviewer(\r\n        address _reviewer_address,\r\n        string memory _username,\r\n        uint _tenure, \r\n        uint _organization, \r\n        uint _role\r\n    ) public {\r\n        Reviewer storage v = reviewers[_reviewer_address];\r\n        reviewerMappingKeys.push(_reviewer_address);\r\n        v.reviewer_address = _reviewer_address;\r\n        v.username = _username;\r\n        v.tenure = _tenure;\r\n        v.organization = _organization;\r\n        v.role = _role;\r\n    }\r\n\r\n    function getReviewer(address _addr) public view returns (\r\n        address, string memory, uint, uint, uint\r\n    ) {\r\n        Reviewer memory v = reviewers[_addr];\r\n        return (\r\n            v.reviewer_address,\r\n            v.username,\r\n            v.tenure,\r\n            v.organization,\r\n            v.role\r\n        );\r\n    }\r\n\r\n    function getAllReviewers() public view returns (Reviewer[] memory){\r\n        Reviewer[] memory result = new Reviewer[](reviewerMappingKeys.length);\r\n        for (uint i = 0; i < reviewerMappingKeys.length; i++) {\r\n            result[i] = reviewers[reviewerMappingKeys[i]];\r\n        }\r\n        return result;\r\n    }\r\n\r\n    // // // // // // // // // // // //\r\n    // //      FOR ARTICLE      // //\r\n    // // // // // // // // // // //\r\n    string[] public articleMappingKeys;\r\n\r\n    function createArticle(\r\n        address _uploader,\r\n        string memory _ipfs_cid,\r\n        string memory _headline,\r\n        string memory _category\r\n    ) public {\r\n        Article storage v = articles[_ipfs_cid];\r\n        articleMappingKeys.push(_ipfs_cid);\r\n        v.uploader = _uploader;\r\n        v.ipfs_cid = _ipfs_cid;\r\n        v.headline = _headline;\r\n        v.category = _category;\r\n    }\r\n\r\n    function getArticle(string memory _ipfs_cid) public view returns (\r\n        address, string memory, string memory, string memory\r\n    ) {\r\n        Article memory v = articles[_ipfs_cid];\r\n        return (\r\n            v.uploader,\r\n            v.ipfs_cid,\r\n            v.headline,\r\n            v.category\r\n        );\r\n    }\r\n\r\n    function getAllArticles() public view returns (Article[] memory){\r\n        Article[] memory result = new Article[](articleMappingKeys.length);\r\n        for (uint i = 0; i < articleMappingKeys.length; i++) {\r\n            result[i] = articles[articleMappingKeys[i]];\r\n        }\r\n        return result;\r\n    }\r\n\r\n    // // // // // // // // // // // //\r\n    // //        FOR VOTE        // //\r\n    // // // // // // // // // // //\r\n    address[] public voteMappingKeys;\r\n    int public totalVotes;\r\n\r\n    function setVote(\r\n        address _voter,\r\n        string memory _ipfs_cid,\r\n        int _vote, \r\n        int _confidence\r\n    ) public {\r\n        Vote storage v = votes[_voter];\r\n        voteMappingKeys.push(_voter);\r\n\r\n        v.voter = _voter;\r\n        v.voted = true;\r\n\r\n        v.ipfs_cid = _ipfs_cid;\r\n        v.vote = _vote;\r\n        v.confidence = _confidence;\r\n\r\n        totalVotes += _vote;\r\n        setFrequency(_voter, 1);\r\n    }\r\n\r\n    function getVote(address _addr) public view returns (\r\n        address, bool, string memory, int, int\r\n    ) {\r\n        Vote memory v = votes[_addr];\r\n        return (\r\n            v.voter,\r\n            v.voted,\r\n            v.ipfs_cid,\r\n            v.vote,\r\n            v.confidence\r\n        );\r\n    }\r\n\r\n    function getAllVotes() public view returns (Vote[] memory) {\r\n        Vote[] memory result = new Vote[](voteMappingKeys.length);\r\n        for (uint i = 0; i < voteMappingKeys.length; i++) {\r\n            result[i] = votes[voteMappingKeys[i]];\r\n        }\r\n        return result;\r\n    }\r\n\r\n    function getSumVotes() public view returns (int) {\r\n        return totalVotes;\r\n    }\r\n\r\n    // // // // // // // // // // // // // //\r\n    // //      FREQUENCY OF VOTE       // //\r\n    // // // // // // // // // // // // //\r\n    function setFrequency(address _reviewer_address, uint _frequency) public {\r\n        Reviewer storage v = reviewers[_reviewer_address];\r\n        v.frequency += _frequency;\r\n    }\r\n\r\n    function getFrequency(address _addr) public view returns (uint) {\r\n        Reviewer memory v = reviewers[_addr];\r\n        return v.frequency;\r\n    }\r\n\r\n    // // // // // // // // // // // // // //\r\n    // //       ACCURACY OF VOTE       // //\r\n    // // // // // // // // // // // // //\r\n    function setAccuracy(address _reviewer_address, uint _accuracy) public {\r\n        Reviewer storage v = reviewers[_reviewer_address];\r\n        v.accuracy += _accuracy;\r\n    }\r\n\r\n    function getAccuracy(address _addr) public view returns (uint) {\r\n        Reviewer memory v = reviewers[_addr];\r\n        return v.accuracy;\r\n    }\r\n\r\n    // // // // // // // // // // // // // //\r\n    //  COMPUTE REVIEWER EXP = EXP SCORE  //\r\n    // // // // // // // // // // // // //\r\n    function calcExpScore(address _addr) public view returns (uint) {\r\n        Reviewer memory v = reviewers[_addr];\r\n        return v.tenure + v.organization + v.role;\r\n    }\r\n\r\n    // // // // // // // // // // // // // // // // // // //\r\n    //  COMPUTE ACCURACY / FREQUENCY = REPUTATION SCORE  //\r\n    // // // // // // // // // // // // // // // // // //\r\n    function calcReputationScore(address _addr) public view returns (uint) {\r\n        Reviewer memory v = reviewers[_addr];\r\n        return (v.accuracy / v.frequency);\r\n    }\r\n\r\n    // // // // // // // // // // // \r\n    // //       RESULT        // //\r\n    // // // // // // // // // //\r\n    function setResult(\r\n        string memory _ipfs_cid, \r\n        string memory _result\r\n    ) public {\r\n        Article storage v = articles[_ipfs_cid];\r\n        v.result = _result;\r\n    }\r\n\r\n    function getResult(\r\n        string memory _ipfs_cid\r\n    ) public view returns (string memory) {\r\n        Article memory v = articles[_ipfs_cid];\r\n        return v.result;\r\n    }\r\n}",
  "sourcePath": "D:\\Projects\\veritru\\ethereum\\contracts\\Veritru.sol",
  "compiler": {
    "name": "solc",
    "version": "0.8.19+commit.7dd6d404.Emscripten.clang"
  },
  "schemaVersion": "3.4.12",
  "updatedAt": "2023-03-13T15:21:35.520Z",
  "devdoc": {
    "kind": "dev",
    "methods": {},
    "version": 1
  },
  "userdoc": {
    "kind": "user",
    "methods": {},
    "version": 1
  }
}