{
  "contractName": "Veritru",
  "abi": [
    {
      "inputs": [
        {
          "internalType": "string",
          "name": "",
          "type": "string"
        }
      ],
      "name": "articles",
      "outputs": [
        {
          "internalType": "string",
          "name": "ipfs_cid",
          "type": "string"
        },
        {
          "internalType": "bool",
          "name": "exists",
          "type": "bool"
        }
      ],
      "stateMutability": "view",
      "type": "function",
      "constant": true
    },
    {
      "inputs": [
        {
          "internalType": "string",
          "name": "_ipfs_cid",
          "type": "string"
        },
        {
          "internalType": "bool",
          "name": "_vote",
          "type": "bool"
        }
      ],
      "name": "vote",
      "outputs": [],
      "stateMutability": "nonpayable",
      "type": "function"
    },
    {
      "inputs": [
        {
          "internalType": "string",
          "name": "_ipfs_cid",
          "type": "string"
        },
        {
          "internalType": "address",
          "name": "_voter",
          "type": "address"
        }
      ],
      "name": "getVote",
      "outputs": [
        {
          "internalType": "bool",
          "name": "",
          "type": "bool"
        }
      ],
      "stateMutability": "view",
      "type": "function",
      "constant": true
    },
    {
      "inputs": [
        {
          "internalType": "string",
          "name": "_ipfs_cid",
          "type": "string"
        }
      ],
      "name": "getTrueVotes",
      "outputs": [
        {
          "internalType": "uint256",
          "name": "",
          "type": "uint256"
        }
      ],
      "stateMutability": "view",
      "type": "function",
      "constant": true
    },
    {
      "inputs": [
        {
          "internalType": "string",
          "name": "_ipfs_cid",
          "type": "string"
        }
      ],
      "name": "getFalseVotes",
      "outputs": [
        {
          "internalType": "uint256",
          "name": "",
          "type": "uint256"
        }
      ],
      "stateMutability": "view",
      "type": "function",
      "constant": true
    },
    {
      "inputs": [
        {
          "internalType": "string",
          "name": "_ipfs_cid",
          "type": "string"
        }
      ],
      "name": "getTotalVotes",
      "outputs": [
        {
          "internalType": "uint256",
          "name": "",
          "type": "uint256"
        }
      ],
      "stateMutability": "view",
      "type": "function",
      "constant": true
    },
    {
      "inputs": [
        {
          "internalType": "string",
          "name": "_ipfs_cid",
          "type": "string"
        }
      ],
      "name": "getArticleOutcome",
      "outputs": [
        {
          "internalType": "string",
          "name": "",
          "type": "string"
        }
      ],
      "stateMutability": "view",
      "type": "function",
      "constant": true
    }
  ],
  "bytecode": "0x608060405234801561001057600080fd5b50611491806100206000396000f3fe608060405234801561001057600080fd5b506004361061007d5760003560e01c80637c702b8d1161005b5780637c702b8d146100fe57806398d16f751461012f5780639b4326fb1461015f578063f7d49b831461018f5761007d565b8063084faa4c1461008257806327d3410c146100b25780636a543a5d146100ce575b600080fd5b61009c60048036038101906100979190610b9a565b6101bf565b6040516100a99190610c62565b60405180910390f35b6100cc60048036038101906100c79190610cbc565b610410565b005b6100e860048036038101906100e39190610b9a565b610667565b6040516100f59190610d31565b60405180910390f35b61011860048036038101906101139190610b9a565b610784565b604051610126929190610d5b565b60405180910390f35b61014960048036038101906101449190610b9a565b610853565b6040516101569190610d31565b60405180910390f35b61017960048036038101906101749190610de9565b6108a7565b6040516101869190610e45565b60405180910390f35b6101a960048036038101906101a49190610b9a565b610922565b6040516101b69190610d31565b60405180910390f35b6060600080836040516101d29190610e9c565b908152602001604051809103902090508060010160009054906101000a900460ff16610233576040517f08c379a000000000000000000000000000000000000000000000000000000000815260040161022a90610f25565b60405180910390fd5b60008060005b83600401805490508110156103175760008460040182815481106102605761025f610f45565b5b9060005260206000200160009054906101000a900473ffffffffffffffffffffffffffffffffffffffff1690508460030160008273ffffffffffffffffffffffffffffffffffffffff1673ffffffffffffffffffffffffffffffffffffffff16815260200190815260200160002060009054906101000a900460ff16156102f45783806102ec90610fa3565b945050610303565b82806102ff90610fa3565b9350505b50808061030f90610fa3565b915050610239565b50600081836103269190610feb565b90506000600282610337919061104e565b905080841115610383576040518060400160405280600481526020017f54727565000000000000000000000000000000000000000000000000000000008152509550505050505061040b565b808311156103cd576040518060400160405280600581526020017f46616c73650000000000000000000000000000000000000000000000000000008152509550505050505061040b565b6040518060400160405280600c81526020017f556e64657465726d696e65640000000000000000000000000000000000000000815250955050505050505b919050565b600080836040516104219190610e9c565b908152602001604051809103902090508060010160009054906101000a900460ff166104bb57600083511161048b576040517f08c379a0000000000000000000000000000000000000000000000000000000008152600401610482906110cb565b60405180910390fd5b8281600001908161049c91906112f7565b5060018160010160006101000a81548160ff0219169083151502179055505b8060020160003373ffffffffffffffffffffffffffffffffffffffff1673ffffffffffffffffffffffffffffffffffffffff16815260200190815260200160002060009054906101000a900460ff161561054a576040517f08c379a00000000000000000000000000000000000000000000000000000000081526004016105419061143b565b60405180910390fd5b818160030160003373ffffffffffffffffffffffffffffffffffffffff1673ffffffffffffffffffffffffffffffffffffffff16815260200190815260200160002060006101000a81548160ff02191690831515021790555060018160020160003373ffffffffffffffffffffffffffffffffffffffff1673ffffffffffffffffffffffffffffffffffffffff16815260200190815260200160002060006101000a81548160ff02191690831515021790555080600401339080600181540180825580915050600190039060005260206000200160009091909190916101000a81548173ffffffffffffffffffffffffffffffffffffffff021916908373ffffffffffffffffffffffffffffffffffffffff160217905550505050565b60008060008360405161067a9190610e9c565b908152602001604051809103902090508060010160009054906101000a900460ff166106aa57600091505061077f565b6000805b82600401805490508110156107785760008360040182815481106106d5576106d4610f45565b5b9060005260206000200160009054906101000a900473ffffffffffffffffffffffffffffffffffffffff1690508360030160008273ffffffffffffffffffffffffffffffffffffffff1673ffffffffffffffffffffffffffffffffffffffff16815260200190815260200160002060009054906101000a900460ff1661076457828061076090610fa3565b9350505b50808061077090610fa3565b9150506106ae565b5080925050505b919050565b6000818051602081018201805184825260208301602085012081835280955050505050506000915090508060000180546107bd9061111a565b80601f01602080910402602001604051908101604052809291908181526020018280546107e99061111a565b80156108365780601f1061080b57610100808354040283529160200191610836565b820191906000526020600020905b81548152906001019060200180831161081957829003601f168201915b5050505050908060010160009054906101000a900460ff16905082565b6000806000836040516108669190610e9c565b908152602001604051809103902090508060010160009054906101000a900460ff166108965760009150506108a2565b80600401805490509150505b919050565b6000806000846040516108ba9190610e9c565b908152602001604051809103902090508060030160008473ffffffffffffffffffffffffffffffffffffffff1673ffffffffffffffffffffffffffffffffffffffff16815260200190815260200160002060009054906101000a900460ff1691505092915050565b6000806000836040516109359190610e9c565b908152602001604051809103902090508060010160009054906101000a900460ff16610965576000915050610a3b565b6000805b8260040180549050811015610a345760008360040182815481106109905761098f610f45565b5b9060005260206000200160009054906101000a900473ffffffffffffffffffffffffffffffffffffffff1690508360030160008273ffffffffffffffffffffffffffffffffffffffff1673ffffffffffffffffffffffffffffffffffffffff16815260200190815260200160002060009054906101000a900460ff1615610a20578280610a1c90610fa3565b9350505b508080610a2c90610fa3565b915050610969565b5080925050505b919050565b6000604051905090565b600080fd5b600080fd5b600080fd5b600080fd5b6000601f19601f8301169050919050565b7f4e487b7100000000000000000000000000000000000000000000000000000000600052604160045260246000fd5b610aa782610a5e565b810181811067ffffffffffffffff82111715610ac657610ac5610a6f565b5b80604052505050565b6000610ad9610a40565b9050610ae58282610a9e565b919050565b600067ffffffffffffffff821115610b0557610b04610a6f565b5b610b0e82610a5e565b9050602081019050919050565b82818337600083830152505050565b6000610b3d610b3884610aea565b610acf565b905082815260208101848484011115610b5957610b58610a59565b5b610b64848285610b1b565b509392505050565b600082601f830112610b8157610b80610a54565b5b8135610b91848260208601610b2a565b91505092915050565b600060208284031215610bb057610baf610a4a565b5b600082013567ffffffffffffffff811115610bce57610bcd610a4f565b5b610bda84828501610b6c565b91505092915050565b600081519050919050565b600082825260208201905092915050565b60005b83811015610c1d578082015181840152602081019050610c02565b60008484015250505050565b6000610c3482610be3565b610c3e8185610bee565b9350610c4e818560208601610bff565b610c5781610a5e565b840191505092915050565b60006020820190508181036000830152610c7c8184610c29565b905092915050565b60008115159050919050565b610c9981610c84565b8114610ca457600080fd5b50565b600081359050610cb681610c90565b92915050565b60008060408385031215610cd357610cd2610a4a565b5b600083013567ffffffffffffffff811115610cf157610cf0610a4f565b5b610cfd85828601610b6c565b9250506020610d0e85828601610ca7565b9150509250929050565b6000819050919050565b610d2b81610d18565b82525050565b6000602082019050610d466000830184610d22565b92915050565b610d5581610c84565b82525050565b60006040820190508181036000830152610d758185610c29565b9050610d846020830184610d4c565b9392505050565b600073ffffffffffffffffffffffffffffffffffffffff82169050919050565b6000610db682610d8b565b9050919050565b610dc681610dab565b8114610dd157600080fd5b50565b600081359050610de381610dbd565b92915050565b60008060408385031215610e0057610dff610a4a565b5b600083013567ffffffffffffffff811115610e1e57610e1d610a4f565b5b610e2a85828601610b6c565b9250506020610e3b85828601610dd4565b9150509250929050565b6000602082019050610e5a6000830184610d4c565b92915050565b600081905092915050565b6000610e7682610be3565b610e808185610e60565b9350610e90818560208601610bff565b80840191505092915050565b6000610ea88284610e6b565b915081905092915050565b7f41727469636c652077697468207468697320495046532043494420646f65732060008201527f6e6f742065786973740000000000000000000000000000000000000000000000602082015250565b6000610f0f602983610bee565b9150610f1a82610eb3565b604082019050919050565b60006020820190508181036000830152610f3e81610f02565b9050919050565b7f4e487b7100000000000000000000000000000000000000000000000000000000600052603260045260246000fd5b7f4e487b7100000000000000000000000000000000000000000000000000000000600052601160045260246000fd5b6000610fae82610d18565b91507fffffffffffffffffffffffffffffffffffffffffffffffffffffffffffffffff8203610fe057610fdf610f74565b5b600182019050919050565b6000610ff682610d18565b915061100183610d18565b925082820190508082111561101957611018610f74565b5b92915050565b7f4e487b7100000000000000000000000000000000000000000000000000000000600052601260045260246000fd5b600061105982610d18565b915061106483610d18565b9250826110745761107361101f565b5b828204905092915050565b7f49504653204349442063616e6e6f7420626520656d7074790000000000000000600082015250565b60006110b5601883610bee565b91506110c08261107f565b602082019050919050565b600060208201905081810360008301526110e4816110a8565b9050919050565b7f4e487b7100000000000000000000000000000000000000000000000000000000600052602260045260246000fd5b6000600282049050600182168061113257607f821691505b602082108103611145576111446110eb565b5b50919050565b60008190508160005260206000209050919050565b60006020601f8301049050919050565b600082821b905092915050565b6000600883026111ad7fffffffffffffffffffffffffffffffffffffffffffffffffffffffffffffffff82611170565b6111b78683611170565b95508019841693508086168417925050509392505050565b6000819050919050565b60006111f46111ef6111ea84610d18565b6111cf565b610d18565b9050919050565b6000819050919050565b61120e836111d9565b61122261121a826111fb565b84845461117d565b825550505050565b600090565b61123761122a565b611242818484611205565b505050565b5b818110156112665761125b60008261122f565b600181019050611248565b5050565b601f8211156112ab5761127c8161114b565b61128584611160565b81016020851015611294578190505b6112a86112a085611160565b830182611247565b50505b505050565b600082821c905092915050565b60006112ce600019846008026112b0565b1980831691505092915050565b60006112e783836112bd565b9150826002028217905092915050565b61130082610be3565b67ffffffffffffffff81111561131957611318610a6f565b5b611323825461111a565b61132e82828561126a565b600060209050601f831160018114611361576000841561134f578287015190505b61135985826112db565b8655506113c1565b601f19841661136f8661114b565b60005b8281101561139757848901518255600182019150602085019450602081019050611372565b868310156113b457848901516113b0601f8916826112bd565b8355505b6001600288020188555050505b505050505050565b7f596f75206861766520616c726561647920766f74656420666f7220746869732060008201527f61727469636c6500000000000000000000000000000000000000000000000000602082015250565b6000611425602783610bee565b9150611430826113c9565b604082019050919050565b6000602082019050818103600083015261145481611418565b905091905056fea264697066735822122056f86009d7469191fceca27c72b37e1e5440b2465364aeb96a4a4db53bb427f264736f6c63430008130033",
  "immutableReferences": {},
  "source": "// SPDX-License-Identifier: MIT\r\n\r\npragma solidity ^0.8.0;\r\n\r\ncontract Veritru {\r\n\r\n    struct Article {\r\n        string ipfs_cid;\r\n        bool exists;\r\n        mapping(address => bool) hasVoted;\r\n        mapping(address => bool) votes;\r\n        address[] voters;\r\n    }\r\n\r\n    mapping(string => Article) public articles;\r\n\r\n    // function submitArticle(string memory _ipfs_cid) public {\r\n    //     require(bytes(_ipfs_cid).length > 0, \"IPFS CID cannot be empty\");\r\n    //     require(!articles[_ipfs_cid].exists, \"Article with this IPFS CID already exists\");\r\n\r\n    //     Article storage newArticle = articles[_ipfs_cid];\r\n    //     newArticle.ipfs_cid = _ipfs_cid;\r\n    //     newArticle.exists = true;\r\n    // }\r\n\r\n    // // // // // // // // // // // // // //\r\n    // //   CAST VOTE OF THE REVIEWER  // //\r\n    // // // // // // // // // // // // //\r\n    function vote(string memory _ipfs_cid, bool _vote) public {\r\n        Article storage article = articles[_ipfs_cid];\r\n\r\n        // Check if the article exists, if not, create it\r\n        // After that, it proceeds with the vote\r\n        if (!article.exists) {\r\n            require(bytes(_ipfs_cid).length > 0, \"IPFS CID cannot be empty\");\r\n\r\n            article.ipfs_cid = _ipfs_cid;\r\n            article.exists = true;\r\n        }\r\n        \r\n        // If article already exists, continue to vote\r\n        // Check if reviewer already voted\r\n        require(!article.hasVoted[msg.sender], \"You have already voted for this article\");\r\n\r\n        article.votes[msg.sender] = _vote;\r\n        article.hasVoted[msg.sender] = true;\r\n        article.voters.push(msg.sender);\r\n    }\r\n\r\n    // // // // // // // // // // // // // //\r\n    // //   GET VOTE OF THE REVIEWER   // //\r\n    // // // // // // // // // // // // //\r\n    function getVote(string memory _ipfs_cid, address _voter) public view returns (bool) {\r\n        Article storage article = articles[_ipfs_cid];\r\n        return article.votes[_voter];\r\n    }\r\n\r\n    // // // // // // // // // // // // //\r\n    // //    GET TOTAL TRUE VOTES   // //\r\n    // // // // // // // // // // // //\r\n    function getTrueVotes(string memory _ipfs_cid) public view returns (uint) {\r\n        Article storage article = articles[_ipfs_cid];\r\n\r\n        if (!article.exists) {\r\n            return 0;\r\n        }\r\n\r\n        uint trueVotes = 0;\r\n        for (uint i = 0; i < article.voters.length; i++) {\r\n            address voter = article.voters[i];\r\n            if (article.votes[voter]) {\r\n                trueVotes++;\r\n            }\r\n        }\r\n        return trueVotes;\r\n    }\r\n\r\n    // // // // // // // // // // // // //\r\n    // //   GET TOTAL FALSE VOTES   // //\r\n    // // // // // // // // // // // //\r\n    function getFalseVotes(string memory _ipfs_cid) public view returns (uint) {\r\n        Article storage article = articles[_ipfs_cid];\r\n\r\n        if (!article.exists) {\r\n            return 0;\r\n        }\r\n\r\n        uint falseVotes = 0;\r\n        for (uint i = 0; i < article.voters.length; i++) {\r\n            address voter = article.voters[i];\r\n            if (!article.votes[voter]) {\r\n                falseVotes++;\r\n            }\r\n        }\r\n        return falseVotes;\r\n    }\r\n\r\n    // // // // // // // // // //\r\n    // //   TOTAL VOTES    // //\r\n    // // // // // // // // //\r\n    function getTotalVotes(string memory _ipfs_cid) public view returns (uint) {\r\n        Article storage article = articles[_ipfs_cid];\r\n\r\n        if (!article.exists) {\r\n            return 0;\r\n        }\r\n        return article.voters.length;\r\n    }\r\n\r\n    // // // // // // // // // // // // // // // // // // // // // // //\r\n    // //   OUTCOME OF THE VOTES BASED ON MAJORITY VOTING MODEL   // //\r\n    // // // // // // // // // // // // // // // // // // // // // //\r\n    function getArticleOutcome(string memory _ipfs_cid) public view returns (string memory) {\r\n        Article storage article = articles[_ipfs_cid];\r\n        require(article.exists, \"Article with this IPFS CID does not exist\");\r\n\r\n        uint trueVotes = 0;\r\n        uint falseVotes = 0;\r\n        for (uint i = 0; i < article.voters.length; i++) {\r\n            address voter = article.voters[i];\r\n            if (article.votes[voter]) {\r\n                trueVotes++;\r\n            } else {\r\n                falseVotes++;\r\n            }\r\n        }\r\n\r\n        uint totalVotes = trueVotes + falseVotes;\r\n        uint threshold = totalVotes / 2;\r\n\r\n        if (trueVotes > threshold) {\r\n            return \"True\";\r\n        } else if (falseVotes > threshold) {\r\n            return \"False\";\r\n        } else {\r\n            return \"Undetermined\";\r\n        }\r\n    }\r\n}\r\n",
  "sourcePath": "D:\\Projects\\veritru\\ethereum\\contracts\\Veritru.sol",
  "compiler": {
    "name": "solc",
    "version": "0.8.19+commit.7dd6d404.Emscripten.clang"
  },
  "schemaVersion": "3.4.12",
  "updatedAt": "2023-03-31T13:14:05.898Z",
  "networkType": "ethereum",
  "devdoc": {
    "kind": "dev",
    "methods": {},
    "version": 1
  },
  "userdoc": {
    "kind": "user",
    "methods": {},
    "version": 1
  }
}